{
  "transactions": [
    {
      "hash": "0xaf122ec288b9bda2a922e0f1b3db6769ddfdc41e9ae4ddc39f7b49800cc354db",
      "transactionType": "CALL",
      "contractName": null,
      "contractAddress": "0x8ed92ff64dc6e833182a4743124fe3e48e2966a7",
      "function": "addSupportedClass(string)",
      "arguments": ["RWA_COMMODITY"],
      "transaction": {
        "from": "0xfde9344cabfa9504eead8a3e4e2096da1316bbaf",
        "to": "0x8ed92ff64dc6e833182a4743124fe3e48e2966a7",
        "gas": "0x2dcb9",
        "value": "0x0",
        "input": "0x902c50d80000000000000000000000000000000000000000000000000000000000000020000000000000000000000000000000000000000000000000000000000000000d5257415f434f4d4d4f4449545900000000000000000000000000000000000000",
        "nonce": "0x431",
        "chainId": "0x14a34"
      },
      "additionalContracts": [],
      "isFixedGasLimit": false
    },
    {
      "hash": "0x09020af39ff2ae7df3ab41f0617e41e204fadc69f109d233acfb0fb1676e5d49",
      "transactionType": "CALL",
      "contractName": null,
      "contractAddress": "0x8ed92ff64dc6e833182a4743124fe3e48e2966a7",
      "function": "nodeMint(address,(string,string,(string,string[],string)[]),uint256,string,bytes)",
      "arguments": [
        "0xFdE9344cabFa9504eEaD8a3E4e2096DA1316BbaF",
        "(CLOB Gold Bullion, RWA_COMMODITY, [])",
        "10",
        "RWA_COMMODITY",
        "0x"
      ],
      "transaction": {
        "from": "0xfde9344cabfa9504eead8a3e4e2096da1316bbaf",
        "to": "0x8ed92ff64dc6e833182a4743124fe3e48e2966a7",
        "gas": "0x5020c",
        "value": "0x0",
        "input": "0xbf72dbe1000000000000000000000000fde9344cabfa9504eead8a3e4e2096da1316bbaf00000000000000000000000000000000000000000000000000000000000000a0000000000000000000000000000000000000000000000000000000000000000a00000000000000000000000000000000000000000000000000000000000001a000000000000000000000000000000000000000000000000000000000000001e0000000000000000000000000000000000000000000000000000000000000006000000000000000000000000000000000000000000000000000000000000000a000000000000000000000000000000000000000000000000000000000000000e00000000000000000000000000000000000000000000000000000000000000011434c4f4220476f6c642042756c6c696f6e000000000000000000000000000000000000000000000000000000000000000000000000000000000000000000000d5257415f434f4d4d4f44495459000000000000000000000000000000000000000000000000000000000000000000000000000000000000000000000000000000000000000000000000000000000000000000000000000000000000000000000d5257415f434f4d4d4f44495459000000000000000000000000000000000000000000000000000000000000000000000000000000000000000000000000000000",
        "nonce": "0x432",
        "chainId": "0x14a34"
      },
      "additionalContracts": [],
      "isFixedGasLimit": false
    },
    {
      "hash": "0xa5d4f5fb58382689564eafe90ad695606ee8f7805edfb65a6e179ebcca8a577b",
      "transactionType": "CALL",
      "contractName": null,
      "contractAddress": "0x2516cadb7b3d4e94094bc4580c271b8559902e3f",
      "function": "placeLimitOrder(address,uint256,address,uint96,uint96,bool,uint8,uint40)",
      "arguments": [
        "0x8ed92Ff64dC6e833182a4743124FE3e48E2966A7",
        "86209365773208710196390533284649345677096571343098265566868054382896343535639",
        "0xe727f09fd8Eb3CaFa730493614df1528Ba69B1e6",
        "1000000000000000000",
        "5",
        "false",
        "0",
        "0"
      ],
      "transaction": {
        "from": "0xfde9344cabfa9504eead8a3e4e2096da1316bbaf",
        "to": "0x2516cadb7b3d4e94094bc4580c271b8559902e3f",
        "gas": "0x104efd",
        "value": "0x0",
        "input": "0x22fa658e0000000000000000000000008ed92ff64dc6e833182a4743124fe3e48e2966a7be98c599ba7d4820a62584f8c897b3fa53b0f8abbdbc26581bd03988c039d017000000000000000000000000e727f09fd8eb3cafa730493614df1528ba69b1e60000000000000000000000000000000000000000000000000de0b6b3a76400000000000000000000000000000000000000000000000000000000000000000005000000000000000000000000000000000000000000000000000000000000000000000000000000000000000000000000000000000000000000000000000000000000000000000000000000000000000000000000000000000000000000000000",
        "nonce": "0x433",
        "chainId": "0x14a34"
      },
      "additionalContracts": [],
      "isFixedGasLimit": false
    },
    {
      "hash": "0x667dd992c52fc42867c18f3852cb0913b785bed18612475cf90443bd90492cb7",
      "transactionType": "CALL",
      "contractName": null,
      "contractAddress": "0xe727f09fd8eb3cafa730493614df1528ba69b1e6",
      "function": "approve(address,uint256)",
      "arguments": [
        "0x2516CAdb7b3d4E94094bC4580C271B8559902e3f",
        "20000000000000000000"
      ],
      "transaction": {
        "from": "0x16a1e17144f10091d6da0eca7f336ccc76462e03",
        "to": "0xe727f09fd8eb3cafa730493614df1528ba69b1e6",
        "gas": "0xf84e",
        "value": "0x0",
        "input": "0x095ea7b30000000000000000000000002516cadb7b3d4e94094bc4580c271b8559902e3f000000000000000000000000000000000000000000000001158e460913d00000",
        "nonce": "0xbd",
        "chainId": "0x14a34"
      },
      "additionalContracts": [],
      "isFixedGasLimit": false
    },
    {
      "hash": "0x1e951b27099c7a9b2639184fcf486f9483c026a04226d16088d76301c5d7ac82",
      "transactionType": "CALL",
      "contractName": null,
      "contractAddress": "0x2516cadb7b3d4e94094bc4580c271b8559902e3f",
      "function": "placeLimitOrder(address,uint256,address,uint96,uint96,bool,uint8,uint40)",
      "arguments": [
        "0x8ed92Ff64dC6e833182a4743124FE3e48E2966A7",
        "86209365773208710196390533284649345677096571343098265566868054382896343535639",
        "0xe727f09fd8Eb3CaFa730493614df1528Ba69B1e6",
        "1000000000000000000",
        "5",
        "true",
        "0",
        "0"
      ],
      "transaction": {
        "from": "0x16a1e17144f10091d6da0eca7f336ccc76462e03",
        "to": "0x2516cadb7b3d4e94094bc4580c271b8559902e3f",
        "gas": "0xa517d",
        "value": "0x0",
        "input": "0x22fa658e0000000000000000000000008ed92ff64dc6e833182a4743124fe3e48e2966a7be98c599ba7d4820a62584f8c897b3fa53b0f8abbdbc26581bd03988c039d017000000000000000000000000e727f09fd8eb3cafa730493614df1528ba69b1e60000000000000000000000000000000000000000000000000de0b6b3a76400000000000000000000000000000000000000000000000000000000000000000005000000000000000000000000000000000000000000000000000000000000000100000000000000000000000000000000000000000000000000000000000000000000000000000000000000000000000000000000000000000000000000000000",
        "nonce": "0xbe",
        "chainId": "0x14a34"
      },
      "additionalContracts": [],
      "isFixedGasLimit": false
    },
    {
      "hash": "0xfbe5a45d45575dbd367a3b063ecaf467feb1010477a64fd1a25d780cb672e7a1",
      "transactionType": "CALL",
      "contractName": null,
      "contractAddress": "0x2516cadb7b3d4e94094bc4580c271b8559902e3f",
      "function": "placeLimitOrder(address,uint256,address,uint96,uint96,bool,uint8,uint40)",
      "arguments": [
        "0x8ed92Ff64dC6e833182a4743124FE3e48E2966A7",
        "86209365773208710196390533284649345677096571343098265566868054382896343535639",
        "0xe727f09fd8Eb3CaFa730493614df1528Ba69B1e6",
        "1000000000000000000",
        "5",
        "false",
        "0",
        "0"
      ],
      "transaction": {
        "from": "0xfde9344cabfa9504eead8a3e4e2096da1316bbaf",
        "to": "0x2516cadb7b3d4e94094bc4580c271b8559902e3f",
        "gas": "0x78fb7",
        "value": "0x0",
        "input": "0x22fa658e0000000000000000000000008ed92ff64dc6e833182a4743124fe3e48e2966a7be98c599ba7d4820a62584f8c897b3fa53b0f8abbdbc26581bd03988c039d017000000000000000000000000e727f09fd8eb3cafa730493614df1528ba69b1e60000000000000000000000000000000000000000000000000de0b6b3a76400000000000000000000000000000000000000000000000000000000000000000005000000000000000000000000000000000000000000000000000000000000000000000000000000000000000000000000000000000000000000000000000000000000000000000000000000000000000000000000000000000000000000000000",
        "nonce": "0x434",
        "chainId": "0x14a34"
      },
      "additionalContracts": [],
      "isFixedGasLimit": false
    },
    {
      "hash": "0xdb3e3154ac771cf350ed44064735ce0470027f524094c72e433a582657ad383f",
      "transactionType": "CALL",
      "contractName": null,
      "contractAddress": "0x2516cadb7b3d4e94094bc4580c271b8559902e3f",
      "function": "placeLimitOrder(address,uint256,address,uint96,uint96,bool,uint8,uint40)",
      "arguments": [
        "0x8ed92Ff64dC6e833182a4743124FE3e48E2966A7",
        "86209365773208710196390533284649345677096571343098265566868054382896343535639",
        "0xe727f09fd8Eb3CaFa730493614df1528Ba69B1e6",
        "1000000000000000000",
        "2",
        "true",
        "0",
        "0"
      ],
      "transaction": {
        "from": "0x16a1e17144f10091d6da0eca7f336ccc76462e03",
        "to": "0x2516cadb7b3d4e94094bc4580c271b8559902e3f",
        "gas": "0x720ef",
        "value": "0x0",
        "input": "0x22fa658e0000000000000000000000008ed92ff64dc6e833182a4743124fe3e48e2966a7be98c599ba7d4820a62584f8c897b3fa53b0f8abbdbc26581bd03988c039d017000000000000000000000000e727f09fd8eb3cafa730493614df1528ba69b1e60000000000000000000000000000000000000000000000000de0b6b3a76400000000000000000000000000000000000000000000000000000000000000000002000000000000000000000000000000000000000000000000000000000000000100000000000000000000000000000000000000000000000000000000000000000000000000000000000000000000000000000000000000000000000000000000",
        "nonce": "0xbf",
        "chainId": "0x14a34"
      },
      "additionalContracts": [],
      "isFixedGasLimit": false
    },
    {
      "hash": "0xc1db045cfe1c5038ffcd971b076d5a9003b0c10f02788136ffebbe801ac4ab17",
      "transactionType": "CALL",
      "contractName": null,
      "contractAddress": "0x2516cadb7b3d4e94094bc4580c271b8559902e3f",
      "function": "cancelOrder(bytes32)",
      "arguments": [
        "0x1e8496aa28c7eab396981201ab2842d726a1503e8b03966f929d8d6eeca333c0"
      ],
      "transaction": {
        "from": "0xfde9344cabfa9504eead8a3e4e2096da1316bbaf",
        "to": "0x2516cadb7b3d4e94094bc4580c271b8559902e3f",
        "gas": "0x297b7",
        "value": "0x0",
        "input": "0x7489ec231e8496aa28c7eab396981201ab2842d726a1503e8b03966f929d8d6eeca333c0",
        "nonce": "0x435",
        "chainId": "0x14a34"
      },
      "additionalContracts": [],
      "isFixedGasLimit": false
    }
  ],
  "receipts": [
    {
      "status": "0x1",
      "cumulativeGasUsed": "0x1f502",
      "logs": [
        {
          "address": "0x8ed92ff64dc6e833182a4743124fe3e48e2966a7",
          "topics": [
            "0xce16422f6437502cf5b67eebb6003921e8dcc3c1df1cede511db426f18810407",
            "0xaca2c2b61e30ac282d05038810c29cd7f38c007ba6e849b3b5469a154ed9bb57"
          ],
          "data": "0x0000000000000000000000000000000000000000000000000000000000000020000000000000000000000000000000000000000000000000000000000000000d5257415f434f4d4d4f4449545900000000000000000000000000000000000000",
          "blockHash": "0x0fc8b4fc8eabb59039c051fc056022a18179cdaf2e009b1f2bd6e7aabb638a05",
          "blockNumber": "0x248d978",
          "blockTimestamp": "0x69a512bc",
          "transactionHash": "0xaf122ec288b9bda2a922e0f1b3db6769ddfdc41e9ae4ddc39f7b49800cc354db",
          "transactionIndex": "0x0",
          "logIndex": "0x0",
          "removed": false
        }
      ],
      "logsBloom": "0x00000010000000000000000000000000000000000000000000000020000000000000000000000000000000100000008000000000000000000000000000000000000000000000000000000000000000000000000000000000000000000000008000000000000000000000000000000000000000000000000000000000000000000000000000000000008000000001000000000000000000000000000000000000000000000000000000000000000000000000000000000000000000002000000000000000000000000000000000000000000008000000000000000000000000000000000000000000000000000000000000000000000000000000000000000000",
      "type": "0x2",
      "transactionHash": "0xaf122ec288b9bda2a922e0f1b3db6769ddfdc41e9ae4ddc39f7b49800cc354db",
      "transactionIndex": "0x0",
      "blockHash": "0x0fc8b4fc8eabb59039c051fc056022a18179cdaf2e009b1f2bd6e7aabb638a05",
      "blockNumber": "0x248d978",
      "gasUsed": "0x1f502",
      "effectiveGasPrice": "0x527afc",
      "blobGasPrice": "0x1",
      "from": "0xfde9344cabfa9504eead8a3e4e2096da1316bbaf",
      "to": "0x8ed92ff64dc6e833182a4743124fe3e48e2966a7",
      "contractAddress": null
    },
    {
      "status": "0x1",
      "cumulativeGasUsed": "0x3a02f",
      "logs": [
        {
          "address": "0x8ed92ff64dc6e833182a4743124fe3e48e2966a7",
          "topics": [
            "0xc3d58168c5ae7397731d063d5bbf3d657854427343f4c083240f7aacaa2d0f62",
            "0x000000000000000000000000fde9344cabfa9504eead8a3e4e2096da1316bbaf",
            "0x0000000000000000000000000000000000000000000000000000000000000000",
            "0x000000000000000000000000fde9344cabfa9504eead8a3e4e2096da1316bbaf"
          ],
          "data": "0xbe98c599ba7d4820a62584f8c897b3fa53b0f8abbdbc26581bd03988c039d017000000000000000000000000000000000000000000000000000000000000000a",
          "blockHash": "0x75b7542d0a58853f05b005f9cad1fb43b226a00029cd7e32d0e27f64a33bf282",
          "blockNumber": "0x248d979",
          "blockTimestamp": "0x69a512bc",
          "transactionHash": "0x09020af39ff2ae7df3ab41f0617e41e204fadc69f109d233acfb0fb1676e5d49",
          "transactionIndex": "0x0",
          "logIndex": "0x0",
          "removed": false
        },
        {
          "address": "0x8ed92ff64dc6e833182a4743124fe3e48e2966a7",
          "topics": [
            "0x75e1dfdca0685211bb5fee4eee3c5829ab84c737605b2d4d5475fab6d7f2264e",
            "0xbe98c599ba7d4820a62584f8c897b3fa53b0f8abbdbc26581bd03988c039d017",
            "0x000000000000000000000000fde9344cabfa9504eead8a3e4e2096da1316bbaf"
          ],
          "data": "0x000000000000000000000000000000000000000000000000000000000000000a",
          "blockHash": "0x75b7542d0a58853f05b005f9cad1fb43b226a00029cd7e32d0e27f64a33bf282",
          "blockNumber": "0x248d979",
          "blockTimestamp": "0x69a512bc",
          "transactionHash": "0x09020af39ff2ae7df3ab41f0617e41e204fadc69f109d233acfb0fb1676e5d49",
          "transactionIndex": "0x0",
          "logIndex": "0x1",
          "removed": false
        },
        {
          "address": "0x8ed92ff64dc6e833182a4743124fe3e48e2966a7",
          "topics": [
            "0xda6f2bc530afd0b181eb0ce39e70c9e83c1b63ecc85e0ad9468948ec8df9eaf7",
            "0x000000000000000000000000fde9344cabfa9504eead8a3e4e2096da1316bbaf",
            "0x9deda575d552ea895b3ccee7d37a6eb8a99bf080f5656e4d8ddc13361845bbc0",
            "0xbe98c599ba7d4820a62584f8c897b3fa53b0f8abbdbc26581bd03988c039d017"
          ],
          "data": "0x000000000000000000000000000000000000000000000000000000000000006000000000000000000000000000000000000000000000000000000000000000a000000000000000000000000000000000000000000000000000000000000000e00000000000000000000000000000000000000000000000000000000000000011434c4f4220476f6c642042756c6c696f6e000000000000000000000000000000000000000000000000000000000000000000000000000000000000000000000d5257415f434f4d4d4f4449545900000000000000000000000000000000000000000000000000000000000000000000000000000000000000000000000000000d5257415f434f4d4d4f4449545900000000000000000000000000000000000000",
          "blockHash": "0x75b7542d0a58853f05b005f9cad1fb43b226a00029cd7e32d0e27f64a33bf282",
          "blockNumber": "0x248d979",
          "blockTimestamp": "0x69a512bc",
          "transactionHash": "0x09020af39ff2ae7df3ab41f0617e41e204fadc69f109d233acfb0fb1676e5d49",
          "transactionIndex": "0x0",
          "logIndex": "0x2",
          "removed": false
        }
      ],
      "logsBloom": "0x00000000000000000000800000002000000000000000000000000020000000000000000000000000080000000000008040000000000000000000000000002000000000000000000000000000000000000000000800000000000000001000008000000000020000000000000000000800000000000000000000000000000000000000000000000400000000000000000000000000000000000002000000000000040002004000000000000040000000000000000000000000000000000000000000000000000000001000000000000000000000000008000000000000000020000000000000000000000000000000000000020000000000000000080000000040",
      "type": "0x2",
      "transactionHash": "0x09020af39ff2ae7df3ab41f0617e41e204fadc69f109d233acfb0fb1676e5d49",
      "transactionIndex": "0x0",
      "blockHash": "0x75b7542d0a58853f05b005f9cad1fb43b226a00029cd7e32d0e27f64a33bf282",
      "blockNumber": "0x248d979",
      "gasUsed": "0x3a02f",
      "effectiveGasPrice": "0x4a155e",
      "blobGasPrice": "0x1",
      "from": "0xfde9344cabfa9504eead8a3e4e2096da1316bbaf",
      "to": "0x8ed92ff64dc6e833182a4743124fe3e48e2966a7",
      "contractAddress": null
    },
    {
      "status": "0x1",
      "cumulativeGasUsed": "0xbce9f",
      "logs": [
        {
          "address": "0x2516cadb7b3d4e94094bc4580c271b8559902e3f",
          "topics": [
            "0xb59e4751072fc0cf5e26ae83218ad0ed1cedecb7bf6e63d09edcb4265edc8537",
            "0x96a2efcd28e8f3d87304cc15e7c89c8bdc4b2cbee486e27800a5dc467bd30886",
            "0x0000000000000000000000008ed92ff64dc6e833182a4743124fe3e48e2966a7",
            "0x000000000000000000000000e727f09fd8eb3cafa730493614df1528ba69b1e6"
          ],
          "data": "0xbe98c599ba7d4820a62584f8c897b3fa53b0f8abbdbc26581bd03988c039d017",
          "blockHash": "0xa7f7d8e3e791e9366c56fc5a885a4a2fc690bbbc102b6fb9ea00b8244b23ad92",
          "blockNumber": "0x248d97a",
          "blockTimestamp": "0x69a512bc",
          "transactionHash": "0xa5d4f5fb58382689564eafe90ad695606ee8f7805edfb65a6e179ebcca8a577b",
          "transactionIndex": "0x0",
          "logIndex": "0x0",
          "removed": false
        },
        {
          "address": "0x8ed92ff64dc6e833182a4743124fe3e48e2966a7",
          "topics": [
            "0xc3d58168c5ae7397731d063d5bbf3d657854427343f4c083240f7aacaa2d0f62",
            "0x0000000000000000000000002516cadb7b3d4e94094bc4580c271b8559902e3f",
            "0x000000000000000000000000fde9344cabfa9504eead8a3e4e2096da1316bbaf",
            "0x0000000000000000000000002516cadb7b3d4e94094bc4580c271b8559902e3f"
          ],
          "data": "0xbe98c599ba7d4820a62584f8c897b3fa53b0f8abbdbc26581bd03988c039d0170000000000000000000000000000000000000000000000000000000000000005",
          "blockHash": "0xa7f7d8e3e791e9366c56fc5a885a4a2fc690bbbc102b6fb9ea00b8244b23ad92",
          "blockNumber": "0x248d97a",
          "blockTimestamp": "0x69a512bc",
          "transactionHash": "0xa5d4f5fb58382689564eafe90ad695606ee8f7805edfb65a6e179ebcca8a577b",
          "transactionIndex": "0x0",
          "logIndex": "0x1",
          "removed": false
        },
        {
          "address": "0x2516cadb7b3d4e94094bc4580c271b8559902e3f",
          "topics": [
            "0x43fe20c09e835070ee79d3e0eac849664d66d2081f225179bfdc0e613d74fe8d",
            "0xb82cdee7497f2012a8a349bca5edcd40441d52a38583faecd9a2ca553349a7c2",
            "0x96a2efcd28e8f3d87304cc15e7c89c8bdc4b2cbee486e27800a5dc467bd30886",
            "0x000000000000000000000000fde9344cabfa9504eead8a3e4e2096da1316bbaf"
          ],
          "data": "0x0000000000000000000000000000000000000000000000000de0b6b3a7640000000000000000000000000000000000000000000000000000000000000000000500000000000000000000000000000000000000000000000000000000000000000000000000000000000000000000000000000000000000000000000000000000000000000000000000000000000000000000000000000000000000000000000000000000000000000000000000000000000000000000000000000000000000000000000000000000000000000000000000000000000000000000000000000007",
          "blockHash": "0xa7f7d8e3e791e9366c56fc5a885a4a2fc690bbbc102b6fb9ea00b8244b23ad92",
          "blockNumber": "0x248d97a",
          "blockTimestamp": "0x69a512bc",
          "transactionHash": "0xa5d4f5fb58382689564eafe90ad695606ee8f7805edfb65a6e179ebcca8a577b",
          "transactionIndex": "0x0",
          "logIndex": "0x2",
          "removed": false
        },
        {
          "address": "0x2516cadb7b3d4e94094bc4580c271b8559902e3f",
          "topics": [
            "0xe764a4f2b65224789e48e732248d5c851e937b83c170bc76fe42ea9a854eacae",
            "0xb82cdee7497f2012a8a349bca5edcd40441d52a38583faecd9a2ca553349a7c2",
            "0x000000000000000000000000fde9344cabfa9504eead8a3e4e2096da1316bbaf",
            "0x0000000000000000000000008ed92ff64dc6e833182a4743124fe3e48e2966a7"
          ],
          "data": "0xbe98c599ba7d4820a62584f8c897b3fa53b0f8abbdbc26581bd03988c039d017000000000000000000000000e727f09fd8eb3cafa730493614df1528ba69b1e60000000000000000000000000000000000000000000000000de0b6b3a7640000000000000000000000000000000000000000000000000000000000000000000500000000000000000000000000000000000000000000000000000000000000000000000000000000000000000000000000000000000000000000000000000000",
          "blockHash": "0xa7f7d8e3e791e9366c56fc5a885a4a2fc690bbbc102b6fb9ea00b8244b23ad92",
          "blockNumber": "0x248d97a",
          "blockTimestamp": "0x69a512bc",
          "transactionHash": "0xa5d4f5fb58382689564eafe90ad695606ee8f7805edfb65a6e179ebcca8a577b",
          "transactionIndex": "0x0",
          "logIndex": "0x3",
          "removed": false
        }
      ],
      "logsBloom": "0x00000000000000000000000000002000000000000802010000000020000000000000000000400000000000000000008000001100000000000000002000002000000000000000000000000000004000000000000000000000000000000000008000000002000000000000000000000000000000000000001000000000000000000000000000000000000000000000000000000000000000000002000000000000840000000000000000000001000100000000000000000000000000400010000000044000000000080000000000000040000000000008000000000000000008000008000800000000000000000000000000000000020600000000090000000000",
      "type": "0x2",
      "transactionHash": "0xa5d4f5fb58382689564eafe90ad695606ee8f7805edfb65a6e179ebcca8a577b",
      "transactionIndex": "0x0",
      "blockHash": "0xa7f7d8e3e791e9366c56fc5a885a4a2fc690bbbc102b6fb9ea00b8244b23ad92",
      "blockNumber": "0x248d97a",
      "gasUsed": "0xbce9f",
      "effectiveGasPrice": "0x42bd5d",
      "blobGasPrice": "0x1",
      "from": "0xfde9344cabfa9504eead8a3e4e2096da1316bbaf",
      "to": "0x2516cadb7b3d4e94094bc4580c271b8559902e3f",
      "contractAddress": null
    },
    {
      "status": "0x1",
      "cumulativeGasUsed": "0xb3c5",
      "logs": [
        {
          "address": "0xe727f09fd8eb3cafa730493614df1528ba69b1e6",
          "topics": [
            "0x8c5be1e5ebec7d5bd14f71427d1e84f3dd0314c0f7b2291e5b200ac8c7c3b925",
            "0x00000000000000000000000016a1e17144f10091d6da0eca7f336ccc76462e03",
            "0x0000000000000000000000002516cadb7b3d4e94094bc4580c271b8559902e3f"
          ],
          "data": "0x000000000000000000000000000000000000000000000001158e460913d00000",
          "blockHash": "0xf5e85a31c1d0147ac1a82f6fbaea455496a3609624d819eeca1a711bbebf03ab",
          "blockNumber": "0x248d97b",
          "blockTimestamp": "0x69a512bd",
          "transactionHash": "0x667dd992c52fc42867c18f3852cb0913b785bed18612475cf90443bd90492cb7",
          "transactionIndex": "0x0",
          "logIndex": "0x0",
          "removed": false
        }
      ],
      "logsBloom": "0x00000000000400000000000000000000000000000004010000000000000000000000000000020000000000000000000000000000000000200000000000200000000000000000000000000000004000000000000000000000000000000000000000000000000000000000000000000000000000000000000000000000000000000000000000000000000000000000000000000000000000000000000000000000020000000000000000000001000000000000000000000000000000000000000000000000000000000000000000000000000000000000000004000000000000008010000000000000000000000000000000000000000000000000000000000000",
      "type": "0x2",
      "transactionHash": "0x667dd992c52fc42867c18f3852cb0913b785bed18612475cf90443bd90492cb7",
      "transactionIndex": "0x0",
      "blockHash": "0xf5e85a31c1d0147ac1a82f6fbaea455496a3609624d819eeca1a711bbebf03ab",
      "blockNumber": "0x248d97b",
      "gasUsed": "0xb3c5",
      "effectiveGasPrice": "0x3c54c6",
      "blobGasPrice": "0x1",
      "from": "0x16a1e17144f10091d6da0eca7f336ccc76462e03",
      "to": "0xe727f09fd8eb3cafa730493614df1528ba69b1e6",
      "contractAddress": null
    },
    {
      "status": "0x1",
      "cumulativeGasUsed": "0x77864",
      "logs": [
        {
          "address": "0xe727f09fd8eb3cafa730493614df1528ba69b1e6",
          "topics": [
            "0x8c5be1e5ebec7d5bd14f71427d1e84f3dd0314c0f7b2291e5b200ac8c7c3b925",
            "0x00000000000000000000000016a1e17144f10091d6da0eca7f336ccc76462e03",
            "0x0000000000000000000000002516cadb7b3d4e94094bc4580c271b8559902e3f"
          ],
          "data": "0x000000000000000000000000000000000000000000000000d02ab486cedc0000",
          "blockHash": "0xbf3104b0c1ae2860f65651f5086ddeaa8fe3fba42a557facbaa22255921db922",
          "blockNumber": "0x248d97c",
          "blockTimestamp": "0x69a512bd",
          "transactionHash": "0x1e951b27099c7a9b2639184fcf486f9483c026a04226d16088d76301c5d7ac82",
          "transactionIndex": "0x0",
          "logIndex": "0x0",
          "removed": false
        },
        {
          "address": "0xe727f09fd8eb3cafa730493614df1528ba69b1e6",
          "topics": [
            "0xddf252ad1be2c89b69c2b068fc378daa952ba7f163c4a11628f55a4df523b3ef",
            "0x00000000000000000000000016a1e17144f10091d6da0eca7f336ccc76462e03",
            "0x0000000000000000000000002516cadb7b3d4e94094bc4580c271b8559902e3f"
          ],
          "data": "0x0000000000000000000000000000000000000000000000004563918244f40000",
          "blockHash": "0xbf3104b0c1ae2860f65651f5086ddeaa8fe3fba42a557facbaa22255921db922",
          "blockNumber": "0x248d97c",
          "blockTimestamp": "0x69a512bd",
          "transactionHash": "0x1e951b27099c7a9b2639184fcf486f9483c026a04226d16088d76301c5d7ac82",
          "transactionIndex": "0x0",
          "logIndex": "0x1",
          "removed": false
        },
        {
          "address": "0x2516cadb7b3d4e94094bc4580c271b8559902e3f",
          "topics": [
            "0x43fe20c09e835070ee79d3e0eac849664d66d2081f225179bfdc0e613d74fe8d",
            "0xfa9a3b1e88a66534fc414a7d1e427431f46e2e10b278f90909443901ccb180d8",
            "0x96a2efcd28e8f3d87304cc15e7c89c8bdc4b2cbee486e27800a5dc467bd30886",
            "0x00000000000000000000000016a1e17144f10091d6da0eca7f336ccc76462e03"
          ],
          "data": "0x0000000000000000000000000000000000000000000000000de0b6b3a7640000000000000000000000000000000000000000000000000000000000000000000500000000000000000000000000000000000000000000000000000000000000010000000000000000000000000000000000000000000000000000000000000000000000000000000000000000000000000000000000000000000000000000000000000000000000000000000000000000000000000000000000000000000000000000000000000000000000000000000000000000000000000000000000000008",
          "blockHash": "0xbf3104b0c1ae2860f65651f5086ddeaa8fe3fba42a557facbaa22255921db922",
          "blockNumber": "0x248d97c",
          "blockTimestamp": "0x69a512bd",
          "transactionHash": "0x1e951b27099c7a9b2639184fcf486f9483c026a04226d16088d76301c5d7ac82",
          "transactionIndex": "0x0",
          "logIndex": "0x2",
          "removed": false
        },
        {
          "address": "0x2516cadb7b3d4e94094bc4580c271b8559902e3f",
          "topics": [
            "0xe764a4f2b65224789e48e732248d5c851e937b83c170bc76fe42ea9a854eacae",
            "0xfa9a3b1e88a66534fc414a7d1e427431f46e2e10b278f90909443901ccb180d8",
            "0x00000000000000000000000016a1e17144f10091d6da0eca7f336ccc76462e03",
            "0x0000000000000000000000008ed92ff64dc6e833182a4743124fe3e48e2966a7"
          ],
          "data": "0xbe98c599ba7d4820a62584f8c897b3fa53b0f8abbdbc26581bd03988c039d017000000000000000000000000e727f09fd8eb3cafa730493614df1528ba69b1e60000000000000000000000000000000000000000000000000de0b6b3a7640000000000000000000000000000000000000000000000000000000000000000000500000000000000000000000000000000000000000000000000000000000000010000000000000000000000000000000000000000000000000000000000000000",
          "blockHash": "0xbf3104b0c1ae2860f65651f5086ddeaa8fe3fba42a557facbaa22255921db922",
          "blockNumber": "0x248d97c",
          "blockTimestamp": "0x69a512bd",
          "transactionHash": "0x1e951b27099c7a9b2639184fcf486f9483c026a04226d16088d76301c5d7ac82",
          "transactionIndex": "0x0",
          "logIndex": "0x3",
          "removed": false
        },
        {
          "address": "0x8ed92ff64dc6e833182a4743124fe3e48e2966a7",
          "topics": [
            "0xc3d58168c5ae7397731d063d5bbf3d657854427343f4c083240f7aacaa2d0f62",
            "0x0000000000000000000000002516cadb7b3d4e94094bc4580c271b8559902e3f",
            "0x0000000000000000000000002516cadb7b3d4e94094bc4580c271b8559902e3f",
            "0x00000000000000000000000016a1e17144f10091d6da0eca7f336ccc76462e03"
          ],
          "data": "0xbe98c599ba7d4820a62584f8c897b3fa53b0f8abbdbc26581bd03988c039d0170000000000000000000000000000000000000000000000000000000000000005",
          "blockHash": "0xbf3104b0c1ae2860f65651f5086ddeaa8fe3fba42a557facbaa22255921db922",
          "blockNumber": "0x248d97c",
          "blockTimestamp": "0x69a512bd",
          "transactionHash": "0x1e951b27099c7a9b2639184fcf486f9483c026a04226d16088d76301c5d7ac82",
          "transactionIndex": "0x0",
          "logIndex": "0x4",
          "removed": false
        },
        {
          "address": "0xe727f09fd8eb3cafa730493614df1528ba69b1e6",
          "topics": [
            "0xddf252ad1be2c89b69c2b068fc378daa952ba7f163c4a11628f55a4df523b3ef",
            "0x0000000000000000000000002516cadb7b3d4e94094bc4580c271b8559902e3f",
            "0x000000000000000000000000fde9344cabfa9504eead8a3e4e2096da1316bbaf"
          ],
          "data": "0x0000000000000000000000000000000000000000000000004551ce090d138000",
          "blockHash": "0xbf3104b0c1ae2860f65651f5086ddeaa8fe3fba42a557facbaa22255921db922",
          "blockNumber": "0x248d97c",
          "blockTimestamp": "0x69a512bd",
          "transactionHash": "0x1e951b27099c7a9b2639184fcf486f9483c026a04226d16088d76301c5d7ac82",
          "transactionIndex": "0x0",
          "logIndex": "0x5",
          "removed": false
        },
        {
          "address": "0x2516cadb7b3d4e94094bc4580c271b8559902e3f",
          "topics": [
            "0x47cd8e8739d8e4d4ccfd0943ad7fcb477cf24bf399fcd51f321fc8b799c66563",
            "0xb96b6c5271dc285cf7b2a2f0f2009a4dcd2b50fc153a2a034fc2a4566c5ff2cf",
            "0xfa9a3b1e88a66534fc414a7d1e427431f46e2e10b278f90909443901ccb180d8",
            "0xb82cdee7497f2012a8a349bca5edcd40441d52a38583faecd9a2ca553349a7c2"
          ],
          "data": "0x00000000000000000000000016a1e17144f10091d6da0eca7f336ccc76462e03000000000000000000000000fde9344cabfa9504eead8a3e4e2096da1316bbaf96a2efcd28e8f3d87304cc15e7c89c8bdc4b2cbee486e27800a5dc467bd308860000000000000000000000000000000000000000000000000de0b6b3a764000000000000000000000000000000000000000000000000000000000000000000050000000000000000000000000000000000000000000000004563918244f40000000000000000000000000000000000000000000000000000002c68af0bb140000000000000000000000000000000000000000000000000000011c37937e080000000000000000000000000000000000000000000000000000000000069a512bd0000000000000000000000000000000000000000000000000000000000000001",
          "blockHash": "0xbf3104b0c1ae2860f65651f5086ddeaa8fe3fba42a557facbaa22255921db922",
          "blockNumber": "0x248d97c",
          "blockTimestamp": "0x69a512bd",
          "transactionHash": "0x1e951b27099c7a9b2639184fcf486f9483c026a04226d16088d76301c5d7ac82",
          "transactionIndex": "0x0",
          "logIndex": "0x6",
          "removed": false
        },
        {
          "address": "0x2516cadb7b3d4e94094bc4580c271b8559902e3f",
          "topics": [
            "0x6746ae7bef5a66756ef74e6ccd309d39d634422122b66149915f237ea8acd696",
            "0xfa9a3b1e88a66534fc414a7d1e427431f46e2e10b278f90909443901ccb180d8",
            "0xb96b6c5271dc285cf7b2a2f0f2009a4dcd2b50fc153a2a034fc2a4566c5ff2cf"
          ],
          "data": "0x00000000000000000000000000000000000000000000000000000000000000050000000000000000000000000000000000000000000000000de0b6b3a764000000000000000000000000000000000000000000000000000000000000000000000000000000000000000000000000000000000000000000000000000000000005",
          "blockHash": "0xbf3104b0c1ae2860f65651f5086ddeaa8fe3fba42a557facbaa22255921db922",
          "blockNumber": "0x248d97c",
          "blockTimestamp": "0x69a512bd",
          "transactionHash": "0x1e951b27099c7a9b2639184fcf486f9483c026a04226d16088d76301c5d7ac82",
          "transactionIndex": "0x0",
          "logIndex": "0x7",
          "removed": false
        },
        {
          "address": "0x2516cadb7b3d4e94094bc4580c271b8559902e3f",
          "topics": [
            "0x6746ae7bef5a66756ef74e6ccd309d39d634422122b66149915f237ea8acd696",
            "0xb82cdee7497f2012a8a349bca5edcd40441d52a38583faecd9a2ca553349a7c2",
            "0xb96b6c5271dc285cf7b2a2f0f2009a4dcd2b50fc153a2a034fc2a4566c5ff2cf"
          ],
          "data": "0x00000000000000000000000000000000000000000000000000000000000000050000000000000000000000000000000000000000000000000de0b6b3a764000000000000000000000000000000000000000000000000000000000000000000000000000000000000000000000000000000000000000000000000000000000005",
          "blockHash": "0xbf3104b0c1ae2860f65651f5086ddeaa8fe3fba42a557facbaa22255921db922",
          "blockNumber": "0x248d97c",
          "blockTimestamp": "0x69a512bd",
          "transactionHash": "0x1e951b27099c7a9b2639184fcf486f9483c026a04226d16088d76301c5d7ac82",
          "transactionIndex": "0x0",
          "logIndex": "0x8",
          "removed": false
        }
      ],
      "logsBloom": "0x00000000000400000000000000002000000000000804010000000020000080000000000000420000000000000000008000001100000000200000002000202000000000000000000000000008004000000000000000000000000000000000008000000002000000000000000200000000000000000000021000000010000000000000000000000000000000000000000000000000000000100002000000010000860000000000000000400001000100000000000000000000800000400050000000048002000000000001000000000040000100000008000004000000000008008010000800000001000000000000000000000000020400000000090000000000",
      "type": "0x2",
      "transactionHash": "0x1e951b27099c7a9b2639184fcf486f9483c026a04226d16088d76301c5d7ac82",
      "transactionIndex": "0x0",
      "blockHash": "0xbf3104b0c1ae2860f65651f5086ddeaa8fe3fba42a557facbaa22255921db922",
      "blockNumber": "0x248d97c",
      "gasUsed": "0x77864",
      "effectiveGasPrice": "0x36b2d0",
      "blobGasPrice": "0x1",
      "from": "0x16a1e17144f10091d6da0eca7f336ccc76462e03",
      "to": "0x2516cadb7b3d4e94094bc4580c271b8559902e3f",
      "contractAddress": null
    },
    {
      "status": "0x1",
      "cumulativeGasUsed": "0x5357e",
      "logs": [
        {
          "address": "0x8ed92ff64dc6e833182a4743124fe3e48e2966a7",
          "topics": [
            "0xc3d58168c5ae7397731d063d5bbf3d657854427343f4c083240f7aacaa2d0f62",
            "0x0000000000000000000000002516cadb7b3d4e94094bc4580c271b8559902e3f",
            "0x000000000000000000000000fde9344cabfa9504eead8a3e4e2096da1316bbaf",
            "0x0000000000000000000000002516cadb7b3d4e94094bc4580c271b8559902e3f"
          ],
          "data": "0xbe98c599ba7d4820a62584f8c897b3fa53b0f8abbdbc26581bd03988c039d0170000000000000000000000000000000000000000000000000000000000000005",
          "blockHash": "0xd2a04c94bf44229b42a1f1f4a2cfc3a2d88763f5e97d49a99d7d246b302b7826",
          "blockNumber": "0x248d97d",
          "blockTimestamp": "0x69a512bd",
          "transactionHash": "0xfbe5a45d45575dbd367a3b063ecaf467feb1010477a64fd1a25d780cb672e7a1",
          "transactionIndex": "0x0",
          "logIndex": "0x0",
          "removed": false
        },
        {
          "address": "0x2516cadb7b3d4e94094bc4580c271b8559902e3f",
          "topics": [
            "0x43fe20c09e835070ee79d3e0eac849664d66d2081f225179bfdc0e613d74fe8d",
            "0xce406dab24dc973e242059654a14598b85be5fecc2b18a0bade1602d47799767",
            "0x96a2efcd28e8f3d87304cc15e7c89c8bdc4b2cbee486e27800a5dc467bd30886",
            "0x000000000000000000000000fde9344cabfa9504eead8a3e4e2096da1316bbaf"
          ],
          "data": "0x0000000000000000000000000000000000000000000000000de0b6b3a7640000000000000000000000000000000000000000000000000000000000000000000500000000000000000000000000000000000000000000000000000000000000000000000000000000000000000000000000000000000000000000000000000000000000000000000000000000000000000000000000000000000000000000000000000000000000000000000000000000000000000000000000000000000000000000000000000000000000000000000000000000000000000000000000000009",
          "blockHash": "0xd2a04c94bf44229b42a1f1f4a2cfc3a2d88763f5e97d49a99d7d246b302b7826",
          "blockNumber": "0x248d97d",
          "blockTimestamp": "0x69a512bd",
          "transactionHash": "0xfbe5a45d45575dbd367a3b063ecaf467feb1010477a64fd1a25d780cb672e7a1",
          "transactionIndex": "0x0",
          "logIndex": "0x1",
          "removed": false
        },
        {
          "address": "0x2516cadb7b3d4e94094bc4580c271b8559902e3f",
          "topics": [
            "0xe764a4f2b65224789e48e732248d5c851e937b83c170bc76fe42ea9a854eacae",
            "0xce406dab24dc973e242059654a14598b85be5fecc2b18a0bade1602d47799767",
            "0x000000000000000000000000fde9344cabfa9504eead8a3e4e2096da1316bbaf",
            "0x0000000000000000000000008ed92ff64dc6e833182a4743124fe3e48e2966a7"
          ],
          "data": "0xbe98c599ba7d4820a62584f8c897b3fa53b0f8abbdbc26581bd03988c039d017000000000000000000000000e727f09fd8eb3cafa730493614df1528ba69b1e60000000000000000000000000000000000000000000000000de0b6b3a7640000000000000000000000000000000000000000000000000000000000000000000500000000000000000000000000000000000000000000000000000000000000000000000000000000000000000000000000000000000000000000000000000000",
          "blockHash": "0xd2a04c94bf44229b42a1f1f4a2cfc3a2d88763f5e97d49a99d7d246b302b7826",
          "blockNumber": "0x248d97d",
          "blockTimestamp": "0x69a512bd",
          "transactionHash": "0xfbe5a45d45575dbd367a3b063ecaf467feb1010477a64fd1a25d780cb672e7a1",
          "transactionIndex": "0x0",
          "logIndex": "0x2",
          "removed": false
        }
      ],
      "logsBloom": "0x00000000000000000000000000002000000000000000010000000020000000000000000000400000000000000000008000001000000000000000000000002000000000040000000000000000004000000000000000000000000000000000008000000002000000000000000000000000000000000000001000000000000000000000000000000000000000000000000000000000000000000002000000000000840000000000000000000003000100000000000000000000000000400010000000040000000000000000000000000040000000000008000000400000000008000000000800000000000000000000000000000000020400000000090000000000",
      "type": "0x2",
      "transactionHash": "0xfbe5a45d45575dbd367a3b063ecaf467feb1010477a64fd1a25d780cb672e7a1",
      "transactionIndex": "0x0",
      "blockHash": "0xd2a04c94bf44229b42a1f1f4a2cfc3a2d88763f5e97d49a99d7d246b302b7826",
      "blockNumber": "0x248d97d",
      "gasUsed": "0x5357e",
      "effectiveGasPrice": "0x31c80a",
      "blobGasPrice": "0x1",
      "from": "0xfde9344cabfa9504eead8a3e4e2096da1316bbaf",
      "to": "0x2516cadb7b3d4e94094bc4580c271b8559902e3f",
      "contractAddress": null
    },
    {
      "status": "0x1",
      "cumulativeGasUsed": "0x4f083",
      "logs": [
        {
          "address": "0xe727f09fd8eb3cafa730493614df1528ba69b1e6",
          "topics": [
            "0x8c5be1e5ebec7d5bd14f71427d1e84f3dd0314c0f7b2291e5b200ac8c7c3b925",
            "0x00000000000000000000000016a1e17144f10091d6da0eca7f336ccc76462e03",
            "0x0000000000000000000000002516cadb7b3d4e94094bc4580c271b8559902e3f"
          ],
          "data": "0x000000000000000000000000000000000000000000000000b469471f80140000",
          "blockHash": "0xf088bfd75fab4d4a297ef6b3ea6091e359b2a884edeba543b069db378a84b1e5",
          "blockNumber": "0x248d97e",
          "blockTimestamp": "0x69a512be",
          "transactionHash": "0xdb3e3154ac771cf350ed44064735ce0470027f524094c72e433a582657ad383f",
          "transactionIndex": "0x0",
          "logIndex": "0x0",
          "removed": false
        },
        {
          "address": "0xe727f09fd8eb3cafa730493614df1528ba69b1e6",
          "topics": [
            "0xddf252ad1be2c89b69c2b068fc378daa952ba7f163c4a11628f55a4df523b3ef",
            "0x00000000000000000000000016a1e17144f10091d6da0eca7f336ccc76462e03",
            "0x0000000000000000000000002516cadb7b3d4e94094bc4580c271b8559902e3f"
          ],
          "data": "0x0000000000000000000000000000000000000000000000001bc16d674ec80000",
          "blockHash": "0xf088bfd75fab4d4a297ef6b3ea6091e359b2a884edeba543b069db378a84b1e5",
          "blockNumber": "0x248d97e",
          "blockTimestamp": "0x69a512be",
          "transactionHash": "0xdb3e3154ac771cf350ed44064735ce0470027f524094c72e433a582657ad383f",
          "transactionIndex": "0x0",
          "logIndex": "0x1",
          "removed": false
        },
        {
          "address": "0x2516cadb7b3d4e94094bc4580c271b8559902e3f",
          "topics": [
            "0x43fe20c09e835070ee79d3e0eac849664d66d2081f225179bfdc0e613d74fe8d",
            "0x8ecebd4f35373aa9e1cd66027ed5bcee53222a4a3dede8deba08ca9f60e2b5de",
            "0x96a2efcd28e8f3d87304cc15e7c89c8bdc4b2cbee486e27800a5dc467bd30886",
            "0x00000000000000000000000016a1e17144f10091d6da0eca7f336ccc76462e03"
          ],
          "data": "0x0000000000000000000000000000000000000000000000000de0b6b3a764000000000000000000000000000000000000000000000000000000000000000000020000000000000000000000000000000000000000000000000000000000000001000000000000000000000000000000000000000000000000000000000000000000000000000000000000000000000000000000000000000000000000000000000000000000000000000000000000000000000000000000000000000000000000000000000000000000000000000000000000000000000000000000000000000a",
          "blockHash": "0xf088bfd75fab4d4a297ef6b3ea6091e359b2a884edeba543b069db378a84b1e5",
          "blockNumber": "0x248d97e",
          "blockTimestamp": "0x69a512be",
          "transactionHash": "0xdb3e3154ac771cf350ed44064735ce0470027f524094c72e433a582657ad383f",
          "transactionIndex": "0x0",
          "logIndex": "0x2",
          "removed": false
        },
        {
          "address": "0x2516cadb7b3d4e94094bc4580c271b8559902e3f",
          "topics": [
            "0xe764a4f2b65224789e48e732248d5c851e937b83c170bc76fe42ea9a854eacae",
            "0x8ecebd4f35373aa9e1cd66027ed5bcee53222a4a3dede8deba08ca9f60e2b5de",
            "0x00000000000000000000000016a1e17144f10091d6da0eca7f336ccc76462e03",
            "0x0000000000000000000000008ed92ff64dc6e833182a4743124fe3e48e2966a7"
          ],
          "data": "0xbe98c599ba7d4820a62584f8c897b3fa53b0f8abbdbc26581bd03988c039d017000000000000000000000000e727f09fd8eb3cafa730493614df1528ba69b1e60000000000000000000000000000000000000000000000000de0b6b3a7640000000000000000000000000000000000000000000000000000000000000000000200000000000000000000000000000000000000000000000000000000000000010000000000000000000000000000000000000000000000000000000000000000",
          "blockHash": "0xf088bfd75fab4d4a297ef6b3ea6091e359b2a884edeba543b069db378a84b1e5",
          "blockNumber": "0x248d97e",
          "blockTimestamp": "0x69a512be",
          "transactionHash": "0xdb3e3154ac771cf350ed44064735ce0470027f524094c72e433a582657ad383f",
          "transactionIndex": "0x0",
          "logIndex": "0x3",
          "removed": false
        },
        {
          "address": "0x8ed92ff64dc6e833182a4743124fe3e48e2966a7",
          "topics": [
            "0xc3d58168c5ae7397731d063d5bbf3d657854427343f4c083240f7aacaa2d0f62",
            "0x0000000000000000000000002516cadb7b3d4e94094bc4580c271b8559902e3f",
            "0x0000000000000000000000002516cadb7b3d4e94094bc4580c271b8559902e3f",
            "0x00000000000000000000000016a1e17144f10091d6da0eca7f336ccc76462e03"
          ],
          "data": "0xbe98c599ba7d4820a62584f8c897b3fa53b0f8abbdbc26581bd03988c039d0170000000000000000000000000000000000000000000000000000000000000002",
          "blockHash": "0xf088bfd75fab4d4a297ef6b3ea6091e359b2a884edeba543b069db378a84b1e5",
          "blockNumber": "0x248d97e",
          "blockTimestamp": "0x69a512be",
          "transactionHash": "0xdb3e3154ac771cf350ed44064735ce0470027f524094c72e433a582657ad383f",
          "transactionIndex": "0x0",
          "logIndex": "0x4",
          "removed": false
        },
        {
          "address": "0xe727f09fd8eb3cafa730493614df1528ba69b1e6",
          "topics": [
            "0xddf252ad1be2c89b69c2b068fc378daa952ba7f163c4a11628f55a4df523b3ef",
            "0x0000000000000000000000002516cadb7b3d4e94094bc4580c271b8559902e3f",
            "0x000000000000000000000000fde9344cabfa9504eead8a3e4e2096da1316bbaf"
          ],
          "data": "0x0000000000000000000000000000000000000000000000001bba526a053b0000",
          "blockHash": "0xf088bfd75fab4d4a297ef6b3ea6091e359b2a884edeba543b069db378a84b1e5",
          "blockNumber": "0x248d97e",
          "blockTimestamp": "0x69a512be",
          "transactionHash": "0xdb3e3154ac771cf350ed44064735ce0470027f524094c72e433a582657ad383f",
          "transactionIndex": "0x0",
          "logIndex": "0x5",
          "removed": false
        },
        {
          "address": "0x2516cadb7b3d4e94094bc4580c271b8559902e3f",
          "topics": [
            "0x47cd8e8739d8e4d4ccfd0943ad7fcb477cf24bf399fcd51f321fc8b799c66563",
            "0x673545b01f5887cbb055297c943426e4a8d8a79764f2f52ec6c7157094b4e661",
            "0x8ecebd4f35373aa9e1cd66027ed5bcee53222a4a3dede8deba08ca9f60e2b5de",
            "0xce406dab24dc973e242059654a14598b85be5fecc2b18a0bade1602d47799767"
          ],
          "data": "0x00000000000000000000000016a1e17144f10091d6da0eca7f336ccc76462e03000000000000000000000000fde9344cabfa9504eead8a3e4e2096da1316bbaf96a2efcd28e8f3d87304cc15e7c89c8bdc4b2cbee486e27800a5dc467bd308860000000000000000000000000000000000000000000000000de0b6b3a764000000000000000000000000000000000000000000000000000000000000000000020000000000000000000000000000000000000000000000001bc16d674ec800000000000000000000000000000000000000000000000000000011c37937e0800000000000000000000000000000000000000000000000000000071afd498d00000000000000000000000000000000000000000000000000000000000069a512be0000000000000000000000000000000000000000000000000000000000000001",
          "blockHash": "0xf088bfd75fab4d4a297ef6b3ea6091e359b2a884edeba543b069db378a84b1e5",
          "blockNumber": "0x248d97e",
          "blockTimestamp": "0x69a512be",
          "transactionHash": "0xdb3e3154ac771cf350ed44064735ce0470027f524094c72e433a582657ad383f",
          "transactionIndex": "0x0",
          "logIndex": "0x6",
          "removed": false
        },
        {
          "address": "0x2516cadb7b3d4e94094bc4580c271b8559902e3f",
          "topics": [
            "0x6746ae7bef5a66756ef74e6ccd309d39d634422122b66149915f237ea8acd696",
            "0x8ecebd4f35373aa9e1cd66027ed5bcee53222a4a3dede8deba08ca9f60e2b5de",
            "0x673545b01f5887cbb055297c943426e4a8d8a79764f2f52ec6c7157094b4e661"
          ],
          "data": "0x00000000000000000000000000000000000000000000000000000000000000020000000000000000000000000000000000000000000000000de0b6b3a764000000000000000000000000000000000000000000000000000000000000000000000000000000000000000000000000000000000000000000000000000000000002",
          "blockHash": "0xf088bfd75fab4d4a297ef6b3ea6091e359b2a884edeba543b069db378a84b1e5",
          "blockNumber": "0x248d97e",
          "blockTimestamp": "0x69a512be",
          "transactionHash": "0xdb3e3154ac771cf350ed44064735ce0470027f524094c72e433a582657ad383f",
          "transactionIndex": "0x0",
          "logIndex": "0x7",
          "removed": false
        },
        {
          "address": "0x2516cadb7b3d4e94094bc4580c271b8559902e3f",
          "topics": [
            "0x6746ae7bef5a66756ef74e6ccd309d39d634422122b66149915f237ea8acd696",
            "0xce406dab24dc973e242059654a14598b85be5fecc2b18a0bade1602d47799767",
            "0x673545b01f5887cbb055297c943426e4a8d8a79764f2f52ec6c7157094b4e661"
          ],
          "data": "0x00000000000000000000000000000000000000000000000000000000000000020000000000000000000000000000000000000000000000000de0b6b3a764000000000000000000000000000000000000000000000000000000000000000000030000000000000000000000000000000000000000000000000000000000000002",
          "blockHash": "0xf088bfd75fab4d4a297ef6b3ea6091e359b2a884edeba543b069db378a84b1e5",
          "blockNumber": "0x248d97e",
          "blockTimestamp": "0x69a512be",
          "transactionHash": "0xdb3e3154ac771cf350ed44064735ce0470027f524094c72e433a582657ad383f",
          "transactionIndex": "0x0",
          "logIndex": "0x8",
          "removed": false
        }
      ],
      "logsBloom": "0x00000000000400000000000000002000000000000004210000000020000000000000000000420000000000000000008000001000000000200000000000202000000000240000000000000008004000000000000000000000000000000000008000000002000000000000000200000000000000000000001000000010000000002000000000000000000000000000000000000000000004100002000000010000860000000000000000000003000100000000000000000000000000400010000000048002000000000001000000000040000000000008000004400000000008008010000800000001000000400000000000000000020400000000090000000000",
      "type": "0x2",
      "transactionHash": "0xdb3e3154ac771cf350ed44064735ce0470027f524094c72e433a582657ad383f",
      "transactionIndex": "0x0",
      "blockHash": "0xf088bfd75fab4d4a297ef6b3ea6091e359b2a884edeba543b069db378a84b1e5",
      "blockNumber": "0x248d97e",
      "gasUsed": "0x4f083",
      "effectiveGasPrice": "0x2d7954",
      "blobGasPrice": "0x1",
      "from": "0x16a1e17144f10091d6da0eca7f336ccc76462e03",
      "to": "0x2516cadb7b3d4e94094bc4580c271b8559902e3f",
      "contractAddress": null
    }
  ],
  "libraries": [],
  "pending": [],
  "returns": {},
  "timestamp": 1772428912721,
  "chain": 84532,
  "commit": "3f143c9"
}
