{
  "transactions": [
    {
      "hash": "0x55c4eab36d3b88bd5f4554d8bce6a9c80e29c086a7b6e598bd2783f4c790d18f",
      "transactionType": "CALL",
      "contractName": null,
      "contractAddress": "0x8ed92ff64dc6e833182a4743124fe3e48e2966a7",
      "function": "createAuSysOrder((bytes32,address,uint256,uint256,uint256,uint256,address,address,bytes32[],address[],((string,string),(string,string),string,string),uint8,bytes32,bool,address,uint256))",
      "arguments": [
        "(0x0000000000000000000000000000000000000000000000000000000000000000, 0x8ed92Ff64dC6e833182a4743124FE3e48E2966A7, 1, 1, 1000000000000000000, 0, 0x0000000000000000000000000000000000000000, 0xFdE9344cabFa9504eEaD8a3E4e2096DA1316BbaF, [], [], ((51.3837, -2.3597), (51.3837, -2.3597), Test Farm, Test Buyer), 0, 0x0000000000000000000000000000000000000000000000000000000000000000, true, 0x0000000000000000000000000000000000000000, 0)"
      ],
      "transaction": {
        "from": "0xfde9344cabfa9504eead8a3e4e2096da1316bbaf",
        "to": "0x8ed92ff64dc6e833182a4743124fe3e48e2966a7",
        "gas": "0xa9c09",
        "value": "0x0",
        "input": "0xaefc63a0000000000000000000000000000000000000000000000000000000000000002000000000000000000000000000000000000000000000000000000000000000000000000000000000000000008ed92ff64dc6e833182a4743124fe3e48e2966a7000000000000000000000000000000000000000000000000000000000000000100000000000000000000000000000000000000000000000000000000000000010000000000000000000000000000000000000000000000000de0b6b3a764000000000000000000000000000000000000000000000000000000000000000000000000000000000000000000000000000000000000000000000000000000000000000000000000000000000000fde9344cabfa9504eead8a3e4e2096da1316bbaf0000000000000000000000000000000000000000000000000000000000000200000000000000000000000000000000000000000000000000000000000000022000000000000000000000000000000000000000000000000000000000000002400000000000000000000000000000000000000000000000000000000000000000000000000000000000000000000000000000000000000000000000000000000000000000000000000000000000000000000000000000000000000000000000010000000000000000000000000000000000000000000000000000000000000000000000000000000000000000000000000000000000000000000000000000000000000000000000000000000000000000000000000000000000000000000000000000000000000000000000000000000000000000000000000000000000000000000000000000000000000000000000000000000000000000000000000000008000000000000000000000000000000000000000000000000000000000000001400000000000000000000000000000000000000000000000000000000000000200000000000000000000000000000000000000000000000000000000000000024000000000000000000000000000000000000000000000000000000000000000400000000000000000000000000000000000000000000000000000000000000080000000000000000000000000000000000000000000000000000000000000000735312e333833370000000000000000000000000000000000000000000000000000000000000000000000000000000000000000000000000000000000000000072d322e333539370000000000000000000000000000000000000000000000000000000000000000000000000000000000000000000000000000000000000000400000000000000000000000000000000000000000000000000000000000000080000000000000000000000000000000000000000000000000000000000000000735312e333833370000000000000000000000000000000000000000000000000000000000000000000000000000000000000000000000000000000000000000072d322e3335393700000000000000000000000000000000000000000000000000000000000000000000000000000000000000000000000000000000000000000954657374204661726d0000000000000000000000000000000000000000000000000000000000000000000000000000000000000000000000000000000000000a5465737420427579657200000000000000000000000000000000000000000000",
        "nonce": "0x431",
        "chainId": "0x14a34"
      },
      "additionalContracts": [],
      "isFixedGasLimit": false
    },
    {
      "hash": "0x55f46d34f424e20628be81fe1941df86766e13cd17d72bd90063bef1f840ce6c",
      "transactionType": "CALL",
      "contractName": null,
      "contractAddress": "0x8ed92ff64dc6e833182a4743124fe3e48e2966a7",
      "function": "acceptP2POffer(bytes32)",
      "arguments": [
        "0x7cd332d19b93bcabe3cce7ca0c18a052f57e5fd03b4758a09f30f5ddc4b22ec4"
      ],
      "transaction": {
        "from": "0x16a1e17144f10091d6da0eca7f336ccc76462e03",
        "to": "0x8ed92ff64dc6e833182a4743124fe3e48e2966a7",
        "gas": "0x373c5",
        "value": "0x0",
        "input": "0xe4189a407cd332d19b93bcabe3cce7ca0c18a052f57e5fd03b4758a09f30f5ddc4b22ec4",
        "nonce": "0xbd",
        "chainId": "0x14a34"
      },
      "additionalContracts": [],
      "isFixedGasLimit": false
    },
    {
      "hash": "0x9fdd8627975c962c0ebd69d6b0d2a5033a32c6b548da518681bf6f8f12e5a778",
      "transactionType": "CALL",
      "contractName": null,
      "contractAddress": "0x8ed92ff64dc6e833182a4743124fe3e48e2966a7",
      "function": "createOrderJourney(bytes32,address,address,((string,string),(string,string),string,string),uint256,uint256,uint256,uint256)",
      "arguments": [
        "0x7cd332d19b93bcabe3cce7ca0c18a052f57e5fd03b4758a09f30f5ddc4b22ec4",
        "0xFdE9344cabFa9504eEaD8a3E4e2096DA1316BbaF",
        "0x16A1e17144f10091D6dA0eCA7F336Ccc76462e03",
        "((51.3837, -2.3597), (51.5074, -0.1278), Test Farm, Bath, Test Buyer, London)",
        "0",
        "1772432912",
        "1",
        "1"
      ],
      "transaction": {
        "from": "0xfde9344cabfa9504eead8a3e4e2096da1316bbaf",
        "to": "0x8ed92ff64dc6e833182a4743124fe3e48e2966a7",
        "gas": "0x8661b",
        "value": "0x0",
        "input": "0xd975d24e7cd332d19b93bcabe3cce7ca0c18a052f57e5fd03b4758a09f30f5ddc4b22ec4000000000000000000000000fde9344cabfa9504eead8a3e4e2096da1316bbaf00000000000000000000000016a1e17144f10091d6da0eca7f336ccc76462e03000000000000000000000000000000000000000000000000000000000000010000000000000000000000000000000000000000000000000000000000000000000000000000000000000000000000000000000000000000000000000069a52e1000000000000000000000000000000000000000000000000000000000000000010000000000000000000000000000000000000000000000000000000000000001000000000000000000000000000000000000000000000000000000000000008000000000000000000000000000000000000000000000000000000000000001400000000000000000000000000000000000000000000000000000000000000200000000000000000000000000000000000000000000000000000000000000024000000000000000000000000000000000000000000000000000000000000000400000000000000000000000000000000000000000000000000000000000000080000000000000000000000000000000000000000000000000000000000000000735312e333833370000000000000000000000000000000000000000000000000000000000000000000000000000000000000000000000000000000000000000072d322e333539370000000000000000000000000000000000000000000000000000000000000000000000000000000000000000000000000000000000000000400000000000000000000000000000000000000000000000000000000000000080000000000000000000000000000000000000000000000000000000000000000735312e353037340000000000000000000000000000000000000000000000000000000000000000000000000000000000000000000000000000000000000000072d302e3132373800000000000000000000000000000000000000000000000000000000000000000000000000000000000000000000000000000000000000000f54657374204661726d2c204261746800000000000000000000000000000000000000000000000000000000000000000000000000000000000000000000000012546573742042757965722c204c6f6e646f6e0000000000000000000000000000",
        "nonce": "0x432",
        "chainId": "0x14a34"
      },
      "additionalContracts": [],
      "isFixedGasLimit": false
    },
    {
      "hash": "0x23d0a287fab9de638bb089d06de1d3bd57966f1a2c5027ee4dc710e7bd1a387c",
      "transactionType": "CALL",
      "contractName": null,
      "contractAddress": "0x8ed92ff64dc6e833182a4743124fe3e48e2966a7",
      "function": "setDriver(address,bool)",
      "arguments": ["0xf39Fd6e51aad88F6F4ce6aB8827279cffFb92266", "true"],
      "transaction": {
        "from": "0xfde9344cabfa9504eead8a3e4e2096da1316bbaf",
        "to": "0x8ed92ff64dc6e833182a4743124fe3e48e2966a7",
        "gas": "0x13296",
        "value": "0x0",
        "input": "0x4a00787a000000000000000000000000f39fd6e51aad88f6f4ce6ab8827279cfffb922660000000000000000000000000000000000000000000000000000000000000001",
        "nonce": "0x433",
        "chainId": "0x14a34"
      },
      "additionalContracts": [],
      "isFixedGasLimit": false
    },
    {
      "hash": "0x12bbdeaeb8087e08fce91a064b5094475f20bbeecc133ffc0cd534e26564b825",
      "transactionType": "CALL",
      "contractName": null,
      "contractAddress": "0x8ed92ff64dc6e833182a4743124fe3e48e2966a7",
      "function": "assignDriverToJourney(address,bytes32)",
      "arguments": [
        "0xf39Fd6e51aad88F6F4ce6aB8827279cffFb92266",
        "0x8d1108e10bcb7c27dddfc02ed9d693a074039d026cf4ea4240b40f7d581ac802"
      ],
      "transaction": {
        "from": "0xfde9344cabfa9504eead8a3e4e2096da1316bbaf",
        "to": "0x8ed92ff64dc6e833182a4743124fe3e48e2966a7",
        "gas": "0x2ba55",
        "value": "0x0",
        "input": "0x26ed9054000000000000000000000000f39fd6e51aad88f6f4ce6ab8827279cfffb922668d1108e10bcb7c27dddfc02ed9d693a074039d026cf4ea4240b40f7d581ac802",
        "nonce": "0x434",
        "chainId": "0x14a34"
      },
      "additionalContracts": [],
      "isFixedGasLimit": false
    },
    {
      "hash": "0x4989da38014d0fa8dacfe9b64aae1c1b0d86a65d527fbcf8c467f119c7dc8b63",
      "transactionType": "CALL",
      "contractName": null,
      "contractAddress": "0x8ed92ff64dc6e833182a4743124fe3e48e2966a7",
      "function": "packageSign(bytes32)",
      "arguments": [
        "0x8d1108e10bcb7c27dddfc02ed9d693a074039d026cf4ea4240b40f7d581ac802"
      ],
      "transaction": {
        "from": "0xfde9344cabfa9504eead8a3e4e2096da1316bbaf",
        "to": "0x8ed92ff64dc6e833182a4743124fe3e48e2966a7",
        "gas": "0x130b6",
        "value": "0x0",
        "input": "0x5306bb148d1108e10bcb7c27dddfc02ed9d693a074039d026cf4ea4240b40f7d581ac802",
        "nonce": "0x435",
        "chainId": "0x14a34"
      },
      "additionalContracts": [],
      "isFixedGasLimit": false
    },
    {
      "hash": "0xafe3519bcd5197bfaa0ad533b1d7c8b8ec05190e61da32dcf5a932c93925948d",
      "transactionType": "CALL",
      "contractName": null,
      "contractAddress": "0x8ed92ff64dc6e833182a4743124fe3e48e2966a7",
      "function": "packageSign(bytes32)",
      "arguments": [
        "0x8d1108e10bcb7c27dddfc02ed9d693a074039d026cf4ea4240b40f7d581ac802"
      ],
      "transaction": {
        "from": "0xf39fd6e51aad88f6f4ce6ab8827279cfffb92266",
        "to": "0x8ed92ff64dc6e833182a4743124fe3e48e2966a7",
        "gas": "0x137e3",
        "value": "0x0",
        "input": "0x5306bb148d1108e10bcb7c27dddfc02ed9d693a074039d026cf4ea4240b40f7d581ac802",
        "nonce": "0x3f8f",
        "chainId": "0x14a34"
      },
      "additionalContracts": [],
      "isFixedGasLimit": false
    },
    {
      "hash": "0x80e8ab300e5fccac3df366b9ae4c47459cbf274471f967e4f190f565c548a5b4",
      "transactionType": "CALL",
      "contractName": null,
      "contractAddress": "0x8ed92ff64dc6e833182a4743124fe3e48e2966a7",
      "function": "handOn(bytes32)",
      "arguments": [
        "0x8d1108e10bcb7c27dddfc02ed9d693a074039d026cf4ea4240b40f7d581ac802"
      ],
      "transaction": {
        "from": "0xf39fd6e51aad88f6f4ce6ab8827279cfffb92266",
        "to": "0x8ed92ff64dc6e833182a4743124fe3e48e2966a7",
        "gas": "0x22b97",
        "value": "0x0",
        "input": "0xbd58cea48d1108e10bcb7c27dddfc02ed9d693a074039d026cf4ea4240b40f7d581ac802",
        "nonce": "0x3f90",
        "chainId": "0x14a34"
      },
      "additionalContracts": [],
      "isFixedGasLimit": false
    },
    {
      "hash": "0x543683f292288f2237b952f40af752ed694e8a2d35bbe37f3def7e4902bfa24c",
      "transactionType": "CALL",
      "contractName": null,
      "contractAddress": "0x8ed92ff64dc6e833182a4743124fe3e48e2966a7",
      "function": "packageSign(bytes32)",
      "arguments": [
        "0x8d1108e10bcb7c27dddfc02ed9d693a074039d026cf4ea4240b40f7d581ac802"
      ],
      "transaction": {
        "from": "0xf39fd6e51aad88f6f4ce6ab8827279cfffb92266",
        "to": "0x8ed92ff64dc6e833182a4743124fe3e48e2966a7",
        "gas": "0x149e5",
        "value": "0x0",
        "input": "0x5306bb148d1108e10bcb7c27dddfc02ed9d693a074039d026cf4ea4240b40f7d581ac802",
        "nonce": "0x3f91",
        "chainId": "0x14a34"
      },
      "additionalContracts": [],
      "isFixedGasLimit": false
    },
    {
      "hash": "0x3b09a7e8b3623ccc239674342230545bb0d72e8c965655d28ac46293be51cef0",
      "transactionType": "CALL",
      "contractName": null,
      "contractAddress": "0x8ed92ff64dc6e833182a4743124fe3e48e2966a7",
      "function": "packageSign(bytes32)",
      "arguments": [
        "0x8d1108e10bcb7c27dddfc02ed9d693a074039d026cf4ea4240b40f7d581ac802"
      ],
      "transaction": {
        "from": "0x16a1e17144f10091d6da0eca7f336ccc76462e03",
        "to": "0x8ed92ff64dc6e833182a4743124fe3e48e2966a7",
        "gas": "0x1379e",
        "value": "0x0",
        "input": "0x5306bb148d1108e10bcb7c27dddfc02ed9d693a074039d026cf4ea4240b40f7d581ac802",
        "nonce": "0xbe",
        "chainId": "0x14a34"
      },
      "additionalContracts": [],
      "isFixedGasLimit": false
    },
    {
      "hash": "0x12fe4cf747ece6d87ab55abe946230f8b8f8e84ee7622234e9f2863749c4147e",
      "transactionType": "CALL",
      "contractName": null,
      "contractAddress": "0x8ed92ff64dc6e833182a4743124fe3e48e2966a7",
      "function": "handOff(bytes32)",
      "arguments": [
        "0x8d1108e10bcb7c27dddfc02ed9d693a074039d026cf4ea4240b40f7d581ac802"
      ],
      "transaction": {
        "from": "0xf39fd6e51aad88f6f4ce6ab8827279cfffb92266",
        "to": "0x8ed92ff64dc6e833182a4743124fe3e48e2966a7",
        "gas": "0x4872d",
        "value": "0x0",
        "input": "0x9d99e4188d1108e10bcb7c27dddfc02ed9d693a074039d026cf4ea4240b40f7d581ac802",
        "nonce": "0x3f92",
        "chainId": "0x14a34"
      },
      "additionalContracts": [],
      "isFixedGasLimit": false
    }
  ],
  "receipts": [
    {
      "status": "0x1",
      "cumulativeGasUsed": "0x7ae5d",
      "logs": [
        {
          "address": "0x8ed92ff64dc6e833182a4743124fe3e48e2966a7",
          "topics": [
            "0xc3d58168c5ae7397731d063d5bbf3d657854427343f4c083240f7aacaa2d0f62",
            "0x0000000000000000000000008ed92ff64dc6e833182a4743124fe3e48e2966a7",
            "0x000000000000000000000000fde9344cabfa9504eead8a3e4e2096da1316bbaf",
            "0x0000000000000000000000008ed92ff64dc6e833182a4743124fe3e48e2966a7"
          ],
          "data": "0x00000000000000000000000000000000000000000000000000000000000000010000000000000000000000000000000000000000000000000000000000000001",
          "blockHash": "0xd891a8268a63fac707e7da9021a0605e33ae980c3e79e4c5615c864cbe3ac205",
          "blockNumber": "0x248d989",
          "blockTimestamp": "0x69a512e9",
          "transactionHash": "0x55c4eab36d3b88bd5f4554d8bce6a9c80e29c086a7b6e598bd2783f4c790d18f",
          "transactionIndex": "0x0",
          "logIndex": "0x0",
          "removed": false
        },
        {
          "address": "0x8ed92ff64dc6e833182a4743124fe3e48e2966a7",
          "topics": [
            "0xda4150a129ef26118eb154ab3e27727aa4f3271f397eedccd201c587ad2a82ed",
            "0x7cd332d19b93bcabe3cce7ca0c18a052f57e5fd03b4758a09f30f5ddc4b22ec4",
            "0x0000000000000000000000000000000000000000000000000000000000000000",
            "0x000000000000000000000000fde9344cabfa9504eead8a3e4e2096da1316bbaf"
          ],
          "data": "0x0000000000000000000000008ed92ff64dc6e833182a4743124fe3e48e2966a7000000000000000000000000000000000000000000000000000000000000000100000000000000000000000000000000000000000000000000000000000000010000000000000000000000000000000000000000000000000de0b6b3a764000000000000000000000000000000000000000000000000000000470de4df820000000000000000000000000000000000000000000000000000000000000000000000000000000000000000000000000000000000000000000000000000000000e00000000000000000000000000000000000000000000000000000000000000000",
          "blockHash": "0xd891a8268a63fac707e7da9021a0605e33ae980c3e79e4c5615c864cbe3ac205",
          "blockNumber": "0x248d989",
          "blockTimestamp": "0x69a512e9",
          "transactionHash": "0x55c4eab36d3b88bd5f4554d8bce6a9c80e29c086a7b6e598bd2783f4c790d18f",
          "transactionIndex": "0x0",
          "logIndex": "0x1",
          "removed": false
        },
        {
          "address": "0x8ed92ff64dc6e833182a4743124fe3e48e2966a7",
          "topics": [
            "0x4c52c233c92c9605acdd40e06fb2a81e6c822ce0d40684d6b7a54bc5f7be8395",
            "0x7cd332d19b93bcabe3cce7ca0c18a052f57e5fd03b4758a09f30f5ddc4b22ec4",
            "0x000000000000000000000000fde9344cabfa9504eead8a3e4e2096da1316bbaf"
          ],
          "data": "0x00000000000000000000000000000000000000000000000000000000000000010000000000000000000000008ed92ff64dc6e833182a4743124fe3e48e2966a7000000000000000000000000000000000000000000000000000000000000000100000000000000000000000000000000000000000000000000000000000000010000000000000000000000000000000000000000000000000de0b6b3a764000000000000000000000000000000000000000000000000000000000000000000000000000000000000000000000000000000000000000000000000000000000000",
          "blockHash": "0xd891a8268a63fac707e7da9021a0605e33ae980c3e79e4c5615c864cbe3ac205",
          "blockNumber": "0x248d989",
          "blockTimestamp": "0x69a512e9",
          "transactionHash": "0x55c4eab36d3b88bd5f4554d8bce6a9c80e29c086a7b6e598bd2783f4c790d18f",
          "transactionIndex": "0x0",
          "logIndex": "0x2",
          "removed": false
        }
      ],
      "logsBloom": "0x00000000000000000000000000002000000000000000000000000020000000000040000000000000000000000000008000000400000000000000080000002000000000000000000000000000000000000000010000002000000000000000008000000000020000000000000000000800000000000000000000000000000000000000000040000000000000000000000000000000000000000002000000000000040000000000000000000000000000000000000000000000000000000000000000000000000000000000000000000000000400000008400000000000000020000000000800000000000000001000000000000000020000000000090000000000",
      "type": "0x2",
      "transactionHash": "0x55c4eab36d3b88bd5f4554d8bce6a9c80e29c086a7b6e598bd2783f4c790d18f",
      "transactionIndex": "0x0",
      "blockHash": "0xd891a8268a63fac707e7da9021a0605e33ae980c3e79e4c5615c864cbe3ac205",
      "blockNumber": "0x248d989",
      "gasUsed": "0x7ae5d",
      "effectiveGasPrice": "0x525583",
      "blobGasPrice": "0x1",
      "from": "0xfde9344cabfa9504eead8a3e4e2096da1316bbaf",
      "to": "0x8ed92ff64dc6e833182a4743124fe3e48e2966a7",
      "contractAddress": null
    },
    {
      "status": "0x1",
      "cumulativeGasUsed": "0x25c4a",
      "logs": [
        {
          "address": "0xe727f09fd8eb3cafa730493614df1528ba69b1e6",
          "topics": [
            "0x8c5be1e5ebec7d5bd14f71427d1e84f3dd0314c0f7b2291e5b200ac8c7c3b925",
            "0x00000000000000000000000016a1e17144f10091d6da0eca7f336ccc76462e03",
            "0x0000000000000000000000008ed92ff64dc6e833182a4743124fe3e48e2966a7"
          ],
          "data": "0x00000000000000000000000000000000000000000000d3c1d54f03d7de03ffff",
          "blockHash": "0xdb6cab3178484488558cbf3b26080ce1ebd972291f3df0ae32cfc60aa56e1a73",
          "blockNumber": "0x248d98a",
          "blockTimestamp": "0x69a512e9",
          "transactionHash": "0x55f46d34f424e20628be81fe1941df86766e13cd17d72bd90063bef1f840ce6c",
          "transactionIndex": "0x0",
          "logIndex": "0x0",
          "removed": false
        },
        {
          "address": "0xe727f09fd8eb3cafa730493614df1528ba69b1e6",
          "topics": [
            "0xddf252ad1be2c89b69c2b068fc378daa952ba7f163c4a11628f55a4df523b3ef",
            "0x00000000000000000000000016a1e17144f10091d6da0eca7f336ccc76462e03",
            "0x0000000000000000000000008ed92ff64dc6e833182a4743124fe3e48e2966a7"
          ],
          "data": "0x0000000000000000000000000000000000000000000000000e27c49886e60000",
          "blockHash": "0xdb6cab3178484488558cbf3b26080ce1ebd972291f3df0ae32cfc60aa56e1a73",
          "blockNumber": "0x248d98a",
          "blockTimestamp": "0x69a512e9",
          "transactionHash": "0x55f46d34f424e20628be81fe1941df86766e13cd17d72bd90063bef1f840ce6c",
          "transactionIndex": "0x0",
          "logIndex": "0x1",
          "removed": false
        },
        {
          "address": "0x8ed92ff64dc6e833182a4743124fe3e48e2966a7",
          "topics": [
            "0x4fbba82c7ac2d3085ee7a8b5f858464eef150708109bc1fe981b0956c76d93d5",
            "0x00000000000000000000000016a1e17144f10091d6da0eca7f336ccc76462e03"
          ],
          "data": "0x0000000000000000000000000000000000000000000000000e27c49886e60000",
          "blockHash": "0xdb6cab3178484488558cbf3b26080ce1ebd972291f3df0ae32cfc60aa56e1a73",
          "blockNumber": "0x248d98a",
          "blockTimestamp": "0x69a512e9",
          "transactionHash": "0x55f46d34f424e20628be81fe1941df86766e13cd17d72bd90063bef1f840ce6c",
          "transactionIndex": "0x0",
          "logIndex": "0x2",
          "removed": false
        },
        {
          "address": "0x8ed92ff64dc6e833182a4743124fe3e48e2966a7",
          "topics": [
            "0x53038a939062f8a4d246519855f687c904e0d81f529d3a478239ca5602843cf8",
            "0x7cd332d19b93bcabe3cce7ca0c18a052f57e5fd03b4758a09f30f5ddc4b22ec4",
            "0x00000000000000000000000016a1e17144f10091d6da0eca7f336ccc76462e03"
          ],
          "data": "0x0000000000000000000000000000000000000000000000000000000000000001",
          "blockHash": "0xdb6cab3178484488558cbf3b26080ce1ebd972291f3df0ae32cfc60aa56e1a73",
          "blockNumber": "0x248d98a",
          "blockTimestamp": "0x69a512e9",
          "transactionHash": "0x55f46d34f424e20628be81fe1941df86766e13cd17d72bd90063bef1f840ce6c",
          "transactionIndex": "0x0",
          "logIndex": "0x3",
          "removed": false
        },
        {
          "address": "0x8ed92ff64dc6e833182a4743124fe3e48e2966a7",
          "topics": [
            "0x4892b23d154700a0297b9662decd5b7579f84ce9d5e51b7fbe38434521ea3a3c",
            "0x7cd332d19b93bcabe3cce7ca0c18a052f57e5fd03b4758a09f30f5ddc4b22ec4"
          ],
          "data": "0x0000000000000000000000000000000000000000000000000000000000000001",
          "blockHash": "0xdb6cab3178484488558cbf3b26080ce1ebd972291f3df0ae32cfc60aa56e1a73",
          "blockNumber": "0x248d98a",
          "blockTimestamp": "0x69a512e9",
          "transactionHash": "0x55f46d34f424e20628be81fe1941df86766e13cd17d72bd90063bef1f840ce6c",
          "transactionIndex": "0x0",
          "logIndex": "0x4",
          "removed": false
        }
      ],
      "logsBloom": "0x00000000000400800000000000000000000000000004000000000020000000000000000000020000000000000000008000000400000000200000000000200000000000000000000000000008000000000000010000000000000000000000008080000000000000000000000000000000000000000000000000000010000000000000000040000000000000000000000000010000000000000000000000000000020000000008000000000002004000000000000000000080000000000000000020000002000000000000000000000000000000000000040004000000000000008010000800000000000000000000000000000000020000000000010000000000",
      "type": "0x2",
      "transactionHash": "0x55f46d34f424e20628be81fe1941df86766e13cd17d72bd90063bef1f840ce6c",
      "transactionIndex": "0x0",
      "blockHash": "0xdb6cab3178484488558cbf3b26080ce1ebd972291f3df0ae32cfc60aa56e1a73",
      "blockNumber": "0x248d98a",
      "gasUsed": "0x25c4a",
      "effectiveGasPrice": "0x49f8de",
      "blobGasPrice": "0x1",
      "from": "0x16a1e17144f10091d6da0eca7f336ccc76462e03",
      "to": "0x8ed92ff64dc6e833182a4743124fe3e48e2966a7",
      "contractAddress": null
    },
    {
      "status": "0x1",
      "cumulativeGasUsed": "0x5be29",
      "logs": [
        {
          "address": "0xe727f09fd8eb3cafa730493614df1528ba69b1e6",
          "topics": [
            "0x8c5be1e5ebec7d5bd14f71427d1e84f3dd0314c0f7b2291e5b200ac8c7c3b925",
            "0x00000000000000000000000016a1e17144f10091d6da0eca7f336ccc76462e03",
            "0x0000000000000000000000008ed92ff64dc6e833182a4743124fe3e48e2966a7"
          ],
          "data": "0x00000000000000000000000000000000000000000000d3c1d54f03d7de03ffff",
          "blockHash": "0xa71327388dc9ffb397f01f825f0cc91d5c0a78d762c647c7f1d147025628fa5a",
          "blockNumber": "0x248d98b",
          "blockTimestamp": "0x69a512e9",
          "transactionHash": "0x9fdd8627975c962c0ebd69d6b0d2a5033a32c6b548da518681bf6f8f12e5a778",
          "transactionIndex": "0x0",
          "logIndex": "0x0",
          "removed": false
        },
        {
          "address": "0xe727f09fd8eb3cafa730493614df1528ba69b1e6",
          "topics": [
            "0xddf252ad1be2c89b69c2b068fc378daa952ba7f163c4a11628f55a4df523b3ef",
            "0x00000000000000000000000016a1e17144f10091d6da0eca7f336ccc76462e03",
            "0x0000000000000000000000008ed92ff64dc6e833182a4743124fe3e48e2966a7"
          ],
          "data": "0x0000000000000000000000000000000000000000000000000000000000000000",
          "blockHash": "0xa71327388dc9ffb397f01f825f0cc91d5c0a78d762c647c7f1d147025628fa5a",
          "blockNumber": "0x248d98b",
          "blockTimestamp": "0x69a512e9",
          "transactionHash": "0x9fdd8627975c962c0ebd69d6b0d2a5033a32c6b548da518681bf6f8f12e5a778",
          "transactionIndex": "0x0",
          "logIndex": "0x1",
          "removed": false
        },
        {
          "address": "0x8ed92ff64dc6e833182a4743124fe3e48e2966a7",
          "topics": [
            "0x4fbba82c7ac2d3085ee7a8b5f858464eef150708109bc1fe981b0956c76d93d5",
            "0x00000000000000000000000016a1e17144f10091d6da0eca7f336ccc76462e03"
          ],
          "data": "0x0000000000000000000000000000000000000000000000000000000000000000",
          "blockHash": "0xa71327388dc9ffb397f01f825f0cc91d5c0a78d762c647c7f1d147025628fa5a",
          "blockNumber": "0x248d98b",
          "blockTimestamp": "0x69a512e9",
          "transactionHash": "0x9fdd8627975c962c0ebd69d6b0d2a5033a32c6b548da518681bf6f8f12e5a778",
          "transactionIndex": "0x0",
          "logIndex": "0x2",
          "removed": false
        },
        {
          "address": "0x8ed92ff64dc6e833182a4743124fe3e48e2966a7",
          "topics": [
            "0x5508139bd396f7e8dad2862f102beaf4dbd252b6ea0e5a028ecf4e1b25fc5354",
            "0x8d1108e10bcb7c27dddfc02ed9d693a074039d026cf4ea4240b40f7d581ac802",
            "0x000000000000000000000000fde9344cabfa9504eead8a3e4e2096da1316bbaf",
            "0x00000000000000000000000016a1e17144f10091d6da0eca7f336ccc76462e03"
          ],
          "data": "0x000000000000000000000000000000000000000000000000000000000000000000000000000000000000000000000000000000000000000000000000000000000000000000000000000000000000000000000000000000000000000069a52e107cd332d19b93bcabe3cce7ca0c18a052f57e5fd03b4758a09f30f5ddc4b22ec40000000000000000000000000000000000000000000000000000000000000140000000000000000000000000000000000000000000000000000000000000018000000000000000000000000000000000000000000000000000000000000001c0000000000000000000000000000000000000000000000000000000000000020000000000000000000000000000000000000000000000000000000000000002400000000000000000000000000000000000000000000000000000000000000280000000000000000000000000000000000000000000000000000000000000000735312e333833370000000000000000000000000000000000000000000000000000000000000000000000000000000000000000000000000000000000000000072d322e3335393700000000000000000000000000000000000000000000000000000000000000000000000000000000000000000000000000000000000000000735312e353037340000000000000000000000000000000000000000000000000000000000000000000000000000000000000000000000000000000000000000072d302e3132373800000000000000000000000000000000000000000000000000000000000000000000000000000000000000000000000000000000000000000f54657374204661726d2c204261746800000000000000000000000000000000000000000000000000000000000000000000000000000000000000000000000012546573742042757965722c204c6f6e646f6e0000000000000000000000000000",
          "blockHash": "0xa71327388dc9ffb397f01f825f0cc91d5c0a78d762c647c7f1d147025628fa5a",
          "blockNumber": "0x248d98b",
          "blockTimestamp": "0x69a512e9",
          "transactionHash": "0x9fdd8627975c962c0ebd69d6b0d2a5033a32c6b548da518681bf6f8f12e5a778",
          "transactionIndex": "0x0",
          "logIndex": "0x3",
          "removed": false
        }
      ],
      "logsBloom": "0x00000000000400000000000000002000000000000004000000020020000000000000000000020000000000000000008000000000000000200000000000200000000000000000000000000008000000000000000000000000000000000000008080000000000000000000000000000000000000000000000000000010000000000000000200000000000000000000000000010000000000000002000040000000060000000008000000000000000000000000000000000000000000000000000000000002000000000000000000000000000000000000000004000000000000008010000800000000000000000800000000000000020080000400010000000000",
      "type": "0x2",
      "transactionHash": "0x9fdd8627975c962c0ebd69d6b0d2a5033a32c6b548da518681bf6f8f12e5a778",
      "transactionIndex": "0x0",
      "blockHash": "0xa71327388dc9ffb397f01f825f0cc91d5c0a78d762c647c7f1d147025628fa5a",
      "blockNumber": "0x248d98b",
      "gasUsed": "0x5be29",
      "effectiveGasPrice": "0x42a398",
      "blobGasPrice": "0x1",
      "from": "0xfde9344cabfa9504eead8a3e4e2096da1316bbaf",
      "to": "0x8ed92ff64dc6e833182a4743124fe3e48e2966a7",
      "contractAddress": null
    },
    {
      "status": "0x1",
      "cumulativeGasUsed": "0xd1a2",
      "logs": [],
      "logsBloom": "0x00000000000000000000000000000000000000000000000000000000000000000000000000000000000000000000000000000000000000000000000000000000000000000000000000000000000000000000000000000000000000000000000000000000000000000000000000000000000000000000000000000000000000000000000000000000000000000000000000000000000000000000000000000000000000000000000000000000000000000000000000000000000000000000000000000000000000000000000000000000000000000000000000000000000000000000000000000000000000000000000000000000000000000000000000000000",
      "type": "0x2",
      "transactionHash": "0x23d0a287fab9de638bb089d06de1d3bd57966f1a2c5027ee4dc710e7bd1a387c",
      "transactionIndex": "0x0",
      "blockHash": "0xf6128b86dd4de6046f131a85d6d7fb1c108becfc8b4a44193b59733434c29730",
      "blockNumber": "0x248d98c",
      "gasUsed": "0xd1a2",
      "effectiveGasPrice": "0x3c3aba",
      "blobGasPrice": "0x1",
      "from": "0xfde9344cabfa9504eead8a3e4e2096da1316bbaf",
      "to": "0x8ed92ff64dc6e833182a4743124fe3e48e2966a7",
      "contractAddress": null
    },
    {
      "status": "0x1",
      "cumulativeGasUsed": "0x1f995",
      "logs": [
        {
          "address": "0x8ed92ff64dc6e833182a4743124fe3e48e2966a7",
          "topics": [
            "0x038b37455504980590113198d0e01b12c4cd264f98dd83ba78178e9a4b7c4e45",
            "0x8d1108e10bcb7c27dddfc02ed9d693a074039d026cf4ea4240b40f7d581ac802",
            "0x000000000000000000000000f39fd6e51aad88f6f4ce6ab8827279cfffb92266"
          ],
          "data": "0x000000000000000000000000fde9344cabfa9504eead8a3e4e2096da1316bbaf00000000000000000000000016a1e17144f10091d6da0eca7f336ccc76462e0300000000000000000000000000000000000000000000000000000000000000000000000000000000000000000000000000000000000000000000000069a52e100000000000000000000000000000000000000000000000000000000000000140000000000000000000000000000000000000000000000000000000000000018000000000000000000000000000000000000000000000000000000000000001c0000000000000000000000000000000000000000000000000000000000000020000000000000000000000000000000000000000000000000000000000000002400000000000000000000000000000000000000000000000000000000000000280000000000000000000000000000000000000000000000000000000000000000735312e333833370000000000000000000000000000000000000000000000000000000000000000000000000000000000000000000000000000000000000000072d322e3335393700000000000000000000000000000000000000000000000000000000000000000000000000000000000000000000000000000000000000000735312e353037340000000000000000000000000000000000000000000000000000000000000000000000000000000000000000000000000000000000000000072d302e3132373800000000000000000000000000000000000000000000000000000000000000000000000000000000000000000000000000000000000000000f54657374204661726d2c204261746800000000000000000000000000000000000000000000000000000000000000000000000000000000000000000000000012546573742042757965722c204c6f6e646f6e0000000000000000000000000000",
          "blockHash": "0xb69f0bc521d675c222438ae7a1a028038ebba77c9ef9a2d67119d19381a9e7fc",
          "blockNumber": "0x248d98d",
          "blockTimestamp": "0x69a512e9",
          "transactionHash": "0x12bbdeaeb8087e08fce91a064b5094475f20bbeecc133ffc0cd534e26564b825",
          "transactionIndex": "0x0",
          "logIndex": "0x0",
          "removed": false
        }
      ],
      "logsBloom": "0x00000000000000000000000000000000000000000000000000020020000000000000000000000000000000000000008000000000000000000000000000000000000000000000000000000000000000000000000000000000000000000000008000000000000000000000000100000000000000000008000800000000000000000000000000000000000000000000000000000000000000000000000040000000000000000000000000000000000000000000000000000000000000000000000000000000000000200000000000000000000000002000000000000000000000000000000000000000040000000800000000000000000000000000000000000000",
      "type": "0x2",
      "transactionHash": "0x12bbdeaeb8087e08fce91a064b5094475f20bbeecc133ffc0cd534e26564b825",
      "transactionIndex": "0x0",
      "blockHash": "0xb69f0bc521d675c222438ae7a1a028038ebba77c9ef9a2d67119d19381a9e7fc",
      "blockNumber": "0x248d98d",
      "gasUsed": "0x1f995",
      "effectiveGasPrice": "0x369c15",
      "blobGasPrice": "0x1",
      "from": "0xfde9344cabfa9504eead8a3e4e2096da1316bbaf",
      "to": "0x8ed92ff64dc6e833182a4743124fe3e48e2966a7",
      "contractAddress": null
    },
    {
      "status": "0x1",
      "cumulativeGasUsed": "0xd05a",
      "logs": [
        {
          "address": "0x8ed92ff64dc6e833182a4743124fe3e48e2966a7",
          "topics": [
            "0x49d0f794d749031a5da3a0620bcfc43da082e35bf91a947f25ed310c5153661b",
            "0x000000000000000000000000fde9344cabfa9504eead8a3e4e2096da1316bbaf",
            "0x8d1108e10bcb7c27dddfc02ed9d693a074039d026cf4ea4240b40f7d581ac802"
          ],
          "data": "0x",
          "blockHash": "0x3ce696a42546f32480915a4badd1f9a8589d5fbdbf8e1df4bb5e7c6b992e8f36",
          "blockNumber": "0x248d98e",
          "blockTimestamp": "0x69a512e9",
          "transactionHash": "0x4989da38014d0fa8dacfe9b64aae1c1b0d86a65d527fbcf8c467f119c7dc8b63",
          "transactionIndex": "0x0",
          "logIndex": "0x0",
          "removed": false
        }
      ],
      "logsBloom": "0x00000000000000000000000020002000000000000000000000020020000000000000004000000000000000000000008000000000000000000000000000000000000000000000000000000000000000000000000000000000000000000000008000000000000000000000000000000000000000000000000000000000000000000000000000000000000000000010000000000000000000000002000040000000040000000000000000000000000000000000000000000000000000000000000000000000000000000000000000000000000000000000000000000000000000000000000000000000000000000800000000000000000000000000000000000000",
      "type": "0x2",
      "transactionHash": "0x4989da38014d0fa8dacfe9b64aae1c1b0d86a65d527fbcf8c467f119c7dc8b63",
      "transactionIndex": "0x0",
      "blockHash": "0x3ce696a42546f32480915a4badd1f9a8589d5fbdbf8e1df4bb5e7c6b992e8f36",
      "blockNumber": "0x248d98e",
      "gasUsed": "0xd05a",
      "effectiveGasPrice": "0x31b1b9",
      "blobGasPrice": "0x1",
      "from": "0xfde9344cabfa9504eead8a3e4e2096da1316bbaf",
      "to": "0x8ed92ff64dc6e833182a4743124fe3e48e2966a7",
      "contractAddress": null
    },
    {
      "status": "0x1",
      "cumulativeGasUsed": "0xe1ce",
      "logs": [
        {
          "address": "0x8ed92ff64dc6e833182a4743124fe3e48e2966a7",
          "topics": [
            "0x49d0f794d749031a5da3a0620bcfc43da082e35bf91a947f25ed310c5153661b",
            "0x000000000000000000000000f39fd6e51aad88f6f4ce6ab8827279cfffb92266",
            "0x8d1108e10bcb7c27dddfc02ed9d693a074039d026cf4ea4240b40f7d581ac802"
          ],
          "data": "0x",
          "blockHash": "0x19742f7fd7034b819f7017c9bcd50c7bb57548abaa97eac0c39093b0e728a8e9",
          "blockNumber": "0x248d98f",
          "blockTimestamp": "0x69a512e9",
          "transactionHash": "0xafe3519bcd5197bfaa0ad533b1d7c8b8ec05190e61da32dcf5a932c93925948d",
          "transactionIndex": "0x0",
          "logIndex": "0x0",
          "removed": false
        }
      ],
      "logsBloom": "0x00000000000000000000000020000000000000000000000000020020000000000000004000000000000000000000008000000000000000000000000000000000000000000000000000000000000000000000000000000000000000000000008000000000000000000000000100000000000000000000000000000000000000000000000000000000000000000010000000000000000000000000000040000000000000000000000000000000000000000000000000000000000000000000000000000000000000200000000000000000000000002000000000000000000000000000000000000000000000000800000000000000000000000000000000000000",
      "type": "0x2",
      "transactionHash": "0xafe3519bcd5197bfaa0ad533b1d7c8b8ec05190e61da32dcf5a932c93925948d",
      "transactionIndex": "0x0",
      "blockHash": "0x19742f7fd7034b819f7017c9bcd50c7bb57548abaa97eac0c39093b0e728a8e9",
      "blockNumber": "0x248d98f",
      "gasUsed": "0xe1ce",
      "effectiveGasPrice": "0x2d641b",
      "blobGasPrice": "0x1",
      "from": "0xf39fd6e51aad88f6f4ce6ab8827279cfffb92266",
      "to": "0x8ed92ff64dc6e833182a4743124fe3e48e2966a7",
      "contractAddress": null
    },
    {
      "status": "0x1",
      "cumulativeGasUsed": "0x1923e",
      "logs": [
        {
          "address": "0x8ed92ff64dc6e833182a4743124fe3e48e2966a7",
          "topics": [
            "0x3ad95bcd3675491a8d013101692ec039d06f4aa77c7512487251a17dc97b7bd2",
            "0x8d1108e10bcb7c27dddfc02ed9d693a074039d026cf4ea4240b40f7d581ac802",
            "0x0000000000000000000000000000000000000000000000000000000000000001"
          ],
          "data": "0x000000000000000000000000fde9344cabfa9504eead8a3e4e2096da1316bbaf00000000000000000000000016a1e17144f10091d6da0eca7f336ccc76462e03000000000000000000000000f39fd6e51aad88f6f4ce6ab8827279cfffb9226600000000000000000000000000000000000000000000000000000000000000000000000000000000000000000000000000000000000000000000000069a52e100000000000000000000000000000000000000000000000000000000069a512e9000000000000000000000000000000000000000000000000000000000000000000000000000000000000000000000000000000000000000000000000000001a000000000000000000000000000000000000000000000000000000000000001e00000000000000000000000000000000000000000000000000000000000000220000000000000000000000000000000000000000000000000000000000000026000000000000000000000000000000000000000000000000000000000000002a000000000000000000000000000000000000000000000000000000000000002e0000000000000000000000000000000000000000000000000000000000000000735312e333833370000000000000000000000000000000000000000000000000000000000000000000000000000000000000000000000000000000000000000072d322e3335393700000000000000000000000000000000000000000000000000000000000000000000000000000000000000000000000000000000000000000735312e353037340000000000000000000000000000000000000000000000000000000000000000000000000000000000000000000000000000000000000000072d302e3132373800000000000000000000000000000000000000000000000000000000000000000000000000000000000000000000000000000000000000000f54657374204661726d2c204261746800000000000000000000000000000000000000000000000000000000000000000000000000000000000000000000000012546573742042757965722c204c6f6e646f6e0000000000000000000000000000",
          "blockHash": "0x2246ffe1503291aa85e90857d29d4635b05118f967af70195f105bd6bf0234d7",
          "blockNumber": "0x248d990",
          "blockTimestamp": "0x69a512e9",
          "transactionHash": "0x80e8ab300e5fccac3df366b9ae4c47459cbf274471f967e4f190f565c548a5b4",
          "transactionIndex": "0x0",
          "logIndex": "0x0",
          "removed": false
        }
      ],
      "logsBloom": "0x00000000000000000000000000000000000000000000000000020020000000000000000000000000000000000000008000000000000000000002000000040000000000000000000000000000000000000000000000040000000000000000008000000000002000000000000000000000000000000000000000000000000000000000000000000000000000000000000000000000000000000000000040000000000000000000000000000000000000000000000000000000000000000000000000000000000000000000000000000010000000000000000000000000000040000000000000000000000000000800000000000000000000000000000000000000",
      "type": "0x2",
      "transactionHash": "0x80e8ab300e5fccac3df366b9ae4c47459cbf274471f967e4f190f565c548a5b4",
      "transactionIndex": "0x0",
      "blockHash": "0x2246ffe1503291aa85e90857d29d4635b05118f967af70195f105bd6bf0234d7",
      "blockNumber": "0x248d990",
      "gasUsed": "0x1923e",
      "effectiveGasPrice": "0x29a02c",
      "blobGasPrice": "0x1",
      "from": "0xf39fd6e51aad88f6f4ce6ab8827279cfffb92266",
      "to": "0x8ed92ff64dc6e833182a4743124fe3e48e2966a7",
      "contractAddress": null
    },
    {
      "status": "0x1",
      "cumulativeGasUsed": "0xe192",
      "logs": [
        {
          "address": "0x8ed92ff64dc6e833182a4743124fe3e48e2966a7",
          "topics": [
            "0x49d0f794d749031a5da3a0620bcfc43da082e35bf91a947f25ed310c5153661b",
            "0x000000000000000000000000f39fd6e51aad88f6f4ce6ab8827279cfffb92266",
            "0x8d1108e10bcb7c27dddfc02ed9d693a074039d026cf4ea4240b40f7d581ac802"
          ],
          "data": "0x",
          "blockHash": "0xa06fdc6ded9dcfd0f19a5c9ffe477e5703db322b06a39511403b85758b3243e5",
          "blockNumber": "0x248d991",
          "blockTimestamp": "0x69a512e9",
          "transactionHash": "0x543683f292288f2237b952f40af752ed694e8a2d35bbe37f3def7e4902bfa24c",
          "transactionIndex": "0x0",
          "logIndex": "0x0",
          "removed": false
        }
      ],
      "logsBloom": "0x00000000000000000000000020000000000000000000000000020020000000000000004000000000000000000000008000000000000000000000000000000000000000000000000000000000000000000000000000000000000000000000008000000000000000000000000100000000000000000000000000000000000000000000000000000000000000000010000000000000000000000000000040000000000000000000000000000000000000000000000000000000000000000000000000000000000000200000000000000000000000002000000000000000000000000000000000000000000000000800000000000000000000000000000000000000",
      "type": "0x2",
      "transactionHash": "0x543683f292288f2237b952f40af752ed694e8a2d35bbe37f3def7e4902bfa24c",
      "transactionIndex": "0x0",
      "blockHash": "0xa06fdc6ded9dcfd0f19a5c9ffe477e5703db322b06a39511403b85758b3243e5",
      "blockNumber": "0x248d991",
      "gasUsed": "0xe192",
      "effectiveGasPrice": "0x2654e6",
      "blobGasPrice": "0x1",
      "from": "0xf39fd6e51aad88f6f4ce6ab8827279cfffb92266",
      "to": "0x8ed92ff64dc6e833182a4743124fe3e48e2966a7",
      "contractAddress": null
    },
    {
      "status": "0x1",
      "cumulativeGasUsed": "0xe19c",
      "logs": [
        {
          "address": "0x8ed92ff64dc6e833182a4743124fe3e48e2966a7",
          "topics": [
            "0x49d0f794d749031a5da3a0620bcfc43da082e35bf91a947f25ed310c5153661b",
            "0x00000000000000000000000016a1e17144f10091d6da0eca7f336ccc76462e03",
            "0x8d1108e10bcb7c27dddfc02ed9d693a074039d026cf4ea4240b40f7d581ac802"
          ],
          "data": "0x",
          "blockHash": "0x2c6bbbdb17a2236799268d60febd64a046561abc278f5ae6c482a3e385faa9b5",
          "blockNumber": "0x248d992",
          "blockTimestamp": "0x69a512e9",
          "transactionHash": "0x3b09a7e8b3623ccc239674342230545bb0d72e8c965655d28ac46293be51cef0",
          "transactionIndex": "0x0",
          "logIndex": "0x0",
          "removed": false
        }
      ],
      "logsBloom": "0x00000000000000000000000020000000000000000004000000020020000000000000004000020000000000000000008000000000000000000000000000000000000000000000000000000000000000000000000000000000000000000000008000000000000000000000000000000000000000000000000000000000000000000000000000000000000000000010000000000000000000000000000040000000000000000000000000000000000000000000000000000000000000000000000000000000000000000000000000000000000000000000000000000000000000008000000000000000000000000800000000000000000000000000000000000000",
      "type": "0x2",
      "transactionHash": "0x3b09a7e8b3623ccc239674342230545bb0d72e8c965655d28ac46293be51cef0",
      "transactionIndex": "0x0",
      "blockHash": "0x2c6bbbdb17a2236799268d60febd64a046561abc278f5ae6c482a3e385faa9b5",
      "blockNumber": "0x248d992",
      "gasUsed": "0xe19c",
      "effectiveGasPrice": "0x2372cc",
      "blobGasPrice": "0x1",
      "from": "0x16a1e17144f10091d6da0eca7f336ccc76462e03",
      "to": "0x8ed92ff64dc6e833182a4743124fe3e48e2966a7",
      "contractAddress": null
    },
    {
      "status": "0x1",
      "cumulativeGasUsed": "0x3189a",
      "logs": [
        {
          "address": "0x8ed92ff64dc6e833182a4743124fe3e48e2966a7",
          "topics": [
            "0x3ad95bcd3675491a8d013101692ec039d06f4aa77c7512487251a17dc97b7bd2",
            "0x8d1108e10bcb7c27dddfc02ed9d693a074039d026cf4ea4240b40f7d581ac802",
            "0x0000000000000000000000000000000000000000000000000000000000000002"
          ],
          "data": "0x000000000000000000000000fde9344cabfa9504eead8a3e4e2096da1316bbaf00000000000000000000000016a1e17144f10091d6da0eca7f336ccc76462e03000000000000000000000000f39fd6e51aad88f6f4ce6ab8827279cfffb9226600000000000000000000000000000000000000000000000000000000000000000000000000000000000000000000000000000000000000000000000069a52e100000000000000000000000000000000000000000000000000000000069a512e90000000000000000000000000000000000000000000000000000000069a512e900000000000000000000000000000000000000000000000000000000000001a000000000000000000000000000000000000000000000000000000000000001e00000000000000000000000000000000000000000000000000000000000000220000000000000000000000000000000000000000000000000000000000000026000000000000000000000000000000000000000000000000000000000000002a000000000000000000000000000000000000000000000000000000000000002e0000000000000000000000000000000000000000000000000000000000000000735312e333833370000000000000000000000000000000000000000000000000000000000000000000000000000000000000000000000000000000000000000072d322e3335393700000000000000000000000000000000000000000000000000000000000000000000000000000000000000000000000000000000000000000735312e353037340000000000000000000000000000000000000000000000000000000000000000000000000000000000000000000000000000000000000000072d302e3132373800000000000000000000000000000000000000000000000000000000000000000000000000000000000000000000000000000000000000000f54657374204661726d2c204261746800000000000000000000000000000000000000000000000000000000000000000000000000000000000000000000000012546573742042757965722c204c6f6e646f6e0000000000000000000000000000",
          "blockHash": "0x778d77d6f57a417458f0192f78b67245a77415b35b25eaf0d274a87e222fa11a",
          "blockNumber": "0x248d993",
          "blockTimestamp": "0x69a512e9",
          "transactionHash": "0x12fe4cf747ece6d87ab55abe946230f8b8f8e84ee7622234e9f2863749c4147e",
          "transactionIndex": "0x0",
          "logIndex": "0x0",
          "removed": false
        },
        {
          "address": "0xe727f09fd8eb3cafa730493614df1528ba69b1e6",
          "topics": [
            "0xddf252ad1be2c89b69c2b068fc378daa952ba7f163c4a11628f55a4df523b3ef",
            "0x0000000000000000000000008ed92ff64dc6e833182a4743124fe3e48e2966a7",
            "0x000000000000000000000000f39fd6e51aad88f6f4ce6ab8827279cfffb92266"
          ],
          "data": "0x0000000000000000000000000000000000000000000000000000000000000000",
          "blockHash": "0x778d77d6f57a417458f0192f78b67245a77415b35b25eaf0d274a87e222fa11a",
          "blockNumber": "0x248d993",
          "blockTimestamp": "0x69a512e9",
          "transactionHash": "0x12fe4cf747ece6d87ab55abe946230f8b8f8e84ee7622234e9f2863749c4147e",
          "transactionIndex": "0x0",
          "logIndex": "0x1",
          "removed": false
        },
        {
          "address": "0x8ed92ff64dc6e833182a4743124fe3e48e2966a7",
          "topics": [
            "0x4892b23d154700a0297b9662decd5b7579f84ce9d5e51b7fbe38434521ea3a3c",
            "0x7cd332d19b93bcabe3cce7ca0c18a052f57e5fd03b4758a09f30f5ddc4b22ec4"
          ],
          "data": "0x0000000000000000000000000000000000000000000000000000000000000002",
          "blockHash": "0x778d77d6f57a417458f0192f78b67245a77415b35b25eaf0d274a87e222fa11a",
          "blockNumber": "0x248d993",
          "blockTimestamp": "0x69a512e9",
          "transactionHash": "0x12fe4cf747ece6d87ab55abe946230f8b8f8e84ee7622234e9f2863749c4147e",
          "transactionIndex": "0x0",
          "logIndex": "0x2",
          "removed": false
        },
        {
          "address": "0x8ed92ff64dc6e833182a4743124fe3e48e2966a7",
          "topics": [
            "0xc3d58168c5ae7397731d063d5bbf3d657854427343f4c083240f7aacaa2d0f62",
            "0x0000000000000000000000008ed92ff64dc6e833182a4743124fe3e48e2966a7",
            "0x0000000000000000000000008ed92ff64dc6e833182a4743124fe3e48e2966a7",
            "0x00000000000000000000000016a1e17144f10091d6da0eca7f336ccc76462e03"
          ],
          "data": "0x00000000000000000000000000000000000000000000000000000000000000010000000000000000000000000000000000000000000000000000000000000001",
          "blockHash": "0x778d77d6f57a417458f0192f78b67245a77415b35b25eaf0d274a87e222fa11a",
          "blockNumber": "0x248d993",
          "blockTimestamp": "0x69a512e9",
          "transactionHash": "0x12fe4cf747ece6d87ab55abe946230f8b8f8e84ee7622234e9f2863749c4147e",
          "transactionIndex": "0x0",
          "logIndex": "0x3",
          "removed": false
        },
        {
          "address": "0xe727f09fd8eb3cafa730493614df1528ba69b1e6",
          "topics": [
            "0xddf252ad1be2c89b69c2b068fc378daa952ba7f163c4a11628f55a4df523b3ef",
            "0x0000000000000000000000008ed92ff64dc6e833182a4743124fe3e48e2966a7",
            "0x000000000000000000000000fde9344cabfa9504eead8a3e4e2096da1316bbaf"
          ],
          "data": "0x0000000000000000000000000000000000000000000000000de0b6b3a7640000",
          "blockHash": "0x778d77d6f57a417458f0192f78b67245a77415b35b25eaf0d274a87e222fa11a",
          "blockNumber": "0x248d993",
          "blockTimestamp": "0x69a512e9",
          "transactionHash": "0x12fe4cf747ece6d87ab55abe946230f8b8f8e84ee7622234e9f2863749c4147e",
          "transactionIndex": "0x0",
          "logIndex": "0x4",
          "removed": false
        },
        {
          "address": "0x8ed92ff64dc6e833182a4743124fe3e48e2966a7",
          "topics": [
            "0xcb4a9094da4df77fb2c0dbaa5047660b1237e61d82a02176c1be74ca757f2531",
            "0x000000000000000000000000fde9344cabfa9504eead8a3e4e2096da1316bbaf"
          ],
          "data": "0x0000000000000000000000000000000000000000000000000de0b6b3a7640000",
          "blockHash": "0x778d77d6f57a417458f0192f78b67245a77415b35b25eaf0d274a87e222fa11a",
          "blockNumber": "0x248d993",
          "blockTimestamp": "0x69a512e9",
          "transactionHash": "0x12fe4cf747ece6d87ab55abe946230f8b8f8e84ee7622234e9f2863749c4147e",
          "transactionIndex": "0x0",
          "logIndex": "0x5",
          "removed": false
        },
        {
          "address": "0x8ed92ff64dc6e833182a4743124fe3e48e2966a7",
          "topics": [
            "0xf29c25eb12066a294805a048405e40f36ac549a7ce8bcc4dcd3eda47cd0799ec",
            "0x7cd332d19b93bcabe3cce7ca0c18a052f57e5fd03b4758a09f30f5ddc4b22ec4"
          ],
          "data": "0x",
          "blockHash": "0x778d77d6f57a417458f0192f78b67245a77415b35b25eaf0d274a87e222fa11a",
          "blockNumber": "0x248d993",
          "blockTimestamp": "0x69a512e9",
          "transactionHash": "0x12fe4cf747ece6d87ab55abe946230f8b8f8e84ee7622234e9f2863749c4147e",
          "transactionIndex": "0x0",
          "logIndex": "0x6",
          "removed": false
        }
      ],
      "logsBloom": "0x0420000000040080000000000000200000000000000400000002002000008000000000000002000000000000000000800000040000000020000200000000200000000000000000000000000800000000000001000000000000000000000000800000000000200000000000010000000000000000000000000000001000000000000000004000000000000000000000000000000000000000000200004020000006000000000000000000010200000000000000000000000000000000000000402000000200000020000000000000001000000000200800000c000000000000008000000800000000000000000800000000000000028000000000090000000000",
      "type": "0x2",
      "transactionHash": "0x12fe4cf747ece6d87ab55abe946230f8b8f8e84ee7622234e9f2863749c4147e",
      "transactionIndex": "0x0",
      "blockHash": "0x778d77d6f57a417458f0192f78b67245a77415b35b25eaf0d274a87e222fa11a",
      "blockNumber": "0x248d993",
      "gasUsed": "0x3189a",
      "effectiveGasPrice": "0x20ecee",
      "blobGasPrice": "0x1",
      "from": "0xf39fd6e51aad88f6f4ce6ab8827279cfffb92266",
      "to": "0x8ed92ff64dc6e833182a4743124fe3e48e2966a7",
      "contractAddress": null
    }
  ],
  "libraries": [],
  "pending": [],
  "returns": {},
  "timestamp": 1772425962989,
  "chain": 84532,
  "commit": "f7f4e84"
}
