{
  "transactions": [
    {
      "hash": "0xe5d84ec1e5893865efaadd4cdc0a1e032c6c5558827b82d2a06742eaf62050bb",
      "transactionType": "CALL",
      "contractName": null,
      "contractAddress": "0x8ed92ff64dc6e833182a4743124fe3e48e2966a7",
      "function": "nodeMint(address,(string,string,(string,string[],string)[]),uint256,string,bytes)",
      "arguments": [
        "0xFdE9344cabFa9504eEaD8a3E4e2096DA1316BbaF",
        "(Premium Wheat Batch #001, AGRICULTURAL, [(grade, [Grade A], Commodity quality grade), (weight, [1000kg], Total weight of this batch)])",
        "10",
        "RWA_COMMODITY",
        "0x"
      ],
      "transaction": {
        "from": "0xfde9344cabfa9504eead8a3e4e2096da1316bbaf",
        "to": "0x8ed92ff64dc6e833182a4743124fe3e48e2966a7",
        "gas": "0x2ff99",
        "value": "0x0",
        "input": "0xbf72dbe1000000000000000000000000fde9344cabfa9504eead8a3e4e2096da1316bbaf00000000000000000000000000000000000000000000000000000000000000a0000000000000000000000000000000000000000000000000000000000000000a00000000000000000000000000000000000000000000000000000000000004a000000000000000000000000000000000000000000000000000000000000004e0000000000000000000000000000000000000000000000000000000000000006000000000000000000000000000000000000000000000000000000000000000a000000000000000000000000000000000000000000000000000000000000000e000000000000000000000000000000000000000000000000000000000000000185072656d69756d20576865617420426174636820233030310000000000000000000000000000000000000000000000000000000000000000000000000000000c4147524943554c545552414c00000000000000000000000000000000000000000000000000000000000000000000000000000000000000000000000000000002000000000000000000000000000000000000000000000000000000000000004000000000000000000000000000000000000000000000000000000000000001a0000000000000000000000000000000000000000000000000000000000000006000000000000000000000000000000000000000000000000000000000000000a000000000000000000000000000000000000000000000000000000000000001200000000000000000000000000000000000000000000000000000000000000005677261646500000000000000000000000000000000000000000000000000000000000000000000000000000000000000000000000000000000000000000000010000000000000000000000000000000000000000000000000000000000000020000000000000000000000000000000000000000000000000000000000000000747726164652041000000000000000000000000000000000000000000000000000000000000000000000000000000000000000000000000000000000000000017436f6d6d6f64697479207175616c697479206772616465000000000000000000000000000000000000000000000000000000000000000000000000000000006000000000000000000000000000000000000000000000000000000000000000a0000000000000000000000000000000000000000000000000000000000000012000000000000000000000000000000000000000000000000000000000000000067765696768740000000000000000000000000000000000000000000000000000000000000000000000000000000000000000000000000000000000000000000100000000000000000000000000000000000000000000000000000000000000200000000000000000000000000000000000000000000000000000000000000006313030306b670000000000000000000000000000000000000000000000000000000000000000000000000000000000000000000000000000000000000000001a546f74616c20776569676874206f662074686973206261746368000000000000000000000000000000000000000000000000000000000000000000000000000d5257415f434f4d4d4f44495459000000000000000000000000000000000000000000000000000000000000000000000000000000000000000000000000000000",
        "nonce": "0x434",
        "chainId": "0x14a34"
      },
      "additionalContracts": [],
      "isFixedGasLimit": false
    },
    {
      "hash": "0xc6d0d33c476c082eace20575f906a0fbc604b64d75d17a97168f2be4b3a49ad2",
      "transactionType": "CALL",
      "contractName": null,
      "contractAddress": "0x8ed92ff64dc6e833182a4743124fe3e48e2966a7",
      "function": "safeTransferFrom(address,address,uint256,uint256,bytes)",
      "arguments": [
        "0xFdE9344cabFa9504eEaD8a3E4e2096DA1316BbaF",
        "0x16A1e17144f10091D6dA0eCA7F336Ccc76462e03",
        "52524622930197671967041763750102677904038620617547338962166868147397235229962",
        "3",
        "0x"
      ],
      "transaction": {
        "from": "0xfde9344cabfa9504eead8a3e4e2096da1316bbaf",
        "to": "0x8ed92ff64dc6e833182a4743124fe3e48e2966a7",
        "gas": "0x14d6e",
        "value": "0x0",
        "input": "0xf242432a000000000000000000000000fde9344cabfa9504eead8a3e4e2096da1316bbaf00000000000000000000000016a1e17144f10091d6da0eca7f336ccc76462e03741fe2105a2e3812e430f1779a9bf5e9d1c4dec896c8e0a15884ff90f2fac50a000000000000000000000000000000000000000000000000000000000000000300000000000000000000000000000000000000000000000000000000000000a00000000000000000000000000000000000000000000000000000000000000000",
        "nonce": "0x435",
        "chainId": "0x14a34"
      },
      "additionalContracts": [],
      "isFixedGasLimit": false
    },
    {
      "hash": "0x9acf0e177c4cf1a69f07126613df432a577bc2d62272db2129a20affa2d0c5ce",
      "transactionType": "CALL",
      "contractName": null,
      "contractAddress": "0x8ed92ff64dc6e833182a4743124fe3e48e2966a7",
      "function": "redeem(uint256,uint256,address)",
      "arguments": [
        "52524622930197671967041763750102677904038620617547338962166868147397235229962",
        "3",
        "0xFdE9344cabFa9504eEaD8a3E4e2096DA1316BbaF"
      ],
      "transaction": {
        "from": "0x16a1e17144f10091d6da0eca7f336ccc76462e03",
        "to": "0x8ed92ff64dc6e833182a4743124fe3e48e2966a7",
        "gas": "0x10555",
        "value": "0x0",
        "input": "0x049104e5741fe2105a2e3812e430f1779a9bf5e9d1c4dec896c8e0a15884ff90f2fac50a0000000000000000000000000000000000000000000000000000000000000003000000000000000000000000fde9344cabfa9504eead8a3e4e2096da1316bbaf",
        "nonce": "0xbe",
        "chainId": "0x14a34"
      },
      "additionalContracts": [],
      "isFixedGasLimit": false
    }
  ],
  "receipts": [
    {
      "status": "0x1",
      "cumulativeGasUsed": "0x20cdb",
      "logs": [
        {
          "address": "0x8ed92ff64dc6e833182a4743124fe3e48e2966a7",
          "topics": [
            "0xc3d58168c5ae7397731d063d5bbf3d657854427343f4c083240f7aacaa2d0f62",
            "0x000000000000000000000000fde9344cabfa9504eead8a3e4e2096da1316bbaf",
            "0x0000000000000000000000000000000000000000000000000000000000000000",
            "0x000000000000000000000000fde9344cabfa9504eead8a3e4e2096da1316bbaf"
          ],
          "data": "0x741fe2105a2e3812e430f1779a9bf5e9d1c4dec896c8e0a15884ff90f2fac50a000000000000000000000000000000000000000000000000000000000000000a",
          "blockHash": "0xa5d60d3c976ee382a54217edc068f4938e25a4067a08576db98779b30f73b6d9",
          "blockNumber": "0x248d97c",
          "blockTimestamp": "0x69a51219",
          "transactionHash": "0xe5d84ec1e5893865efaadd4cdc0a1e032c6c5558827b82d2a06742eaf62050bb",
          "transactionIndex": "0x0",
          "logIndex": "0x0",
          "removed": false
        },
        {
          "address": "0x8ed92ff64dc6e833182a4743124fe3e48e2966a7",
          "topics": [
            "0x75e1dfdca0685211bb5fee4eee3c5829ab84c737605b2d4d5475fab6d7f2264e",
            "0x741fe2105a2e3812e430f1779a9bf5e9d1c4dec896c8e0a15884ff90f2fac50a",
            "0x000000000000000000000000fde9344cabfa9504eead8a3e4e2096da1316bbaf"
          ],
          "data": "0x000000000000000000000000000000000000000000000000000000000000000a",
          "blockHash": "0xa5d60d3c976ee382a54217edc068f4938e25a4067a08576db98779b30f73b6d9",
          "blockNumber": "0x248d97c",
          "blockTimestamp": "0x69a51219",
          "transactionHash": "0xe5d84ec1e5893865efaadd4cdc0a1e032c6c5558827b82d2a06742eaf62050bb",
          "transactionIndex": "0x0",
          "logIndex": "0x1",
          "removed": false
        },
        {
          "address": "0x8ed92ff64dc6e833182a4743124fe3e48e2966a7",
          "topics": [
            "0xda6f2bc530afd0b181eb0ce39e70c9e83c1b63ecc85e0ad9468948ec8df9eaf7",
            "0x000000000000000000000000fde9344cabfa9504eead8a3e4e2096da1316bbaf",
            "0x2e8a5e67535ded4bc451721efd2110f74c8836340d0fb7dc33a1b06cf4efca48",
            "0x741fe2105a2e3812e430f1779a9bf5e9d1c4dec896c8e0a15884ff90f2fac50a"
          ],
          "data": "0x000000000000000000000000000000000000000000000000000000000000006000000000000000000000000000000000000000000000000000000000000000a000000000000000000000000000000000000000000000000000000000000000e000000000000000000000000000000000000000000000000000000000000000185072656d69756d20576865617420426174636820233030310000000000000000000000000000000000000000000000000000000000000000000000000000000c4147524943554c545552414c0000000000000000000000000000000000000000000000000000000000000000000000000000000000000000000000000000000d5257415f434f4d4d4f4449545900000000000000000000000000000000000000",
          "blockHash": "0xa5d60d3c976ee382a54217edc068f4938e25a4067a08576db98779b30f73b6d9",
          "blockNumber": "0x248d97c",
          "blockTimestamp": "0x69a51219",
          "transactionHash": "0xe5d84ec1e5893865efaadd4cdc0a1e032c6c5558827b82d2a06742eaf62050bb",
          "transactionIndex": "0x0",
          "logIndex": "0x2",
          "removed": false
        },
        {
          "address": "0x8ed92ff64dc6e833182a4743124fe3e48e2966a7",
          "topics": [
            "0xee7669d5ae6caeede232f92dbff97d79fc15774e78d366962582f658cfb8c7c7",
            "0x2e8a5e67535ded4bc451721efd2110f74c8836340d0fb7dc33a1b06cf4efca48",
            "0x0000000000000000000000000000000000000000000000000000000000000000"
          ],
          "data": "0x000000000000000000000000000000000000000000000000000000000000006000000000000000000000000000000000000000000000000000000000000000a000000000000000000000000000000000000000000000000000000000000001200000000000000000000000000000000000000000000000000000000000000005677261646500000000000000000000000000000000000000000000000000000000000000000000000000000000000000000000000000000000000000000000010000000000000000000000000000000000000000000000000000000000000020000000000000000000000000000000000000000000000000000000000000000747726164652041000000000000000000000000000000000000000000000000000000000000000000000000000000000000000000000000000000000000000017436f6d6d6f64697479207175616c697479206772616465000000000000000000",
          "blockHash": "0xa5d60d3c976ee382a54217edc068f4938e25a4067a08576db98779b30f73b6d9",
          "blockNumber": "0x248d97c",
          "blockTimestamp": "0x69a51219",
          "transactionHash": "0xe5d84ec1e5893865efaadd4cdc0a1e032c6c5558827b82d2a06742eaf62050bb",
          "transactionIndex": "0x0",
          "logIndex": "0x3",
          "removed": false
        },
        {
          "address": "0x8ed92ff64dc6e833182a4743124fe3e48e2966a7",
          "topics": [
            "0xee7669d5ae6caeede232f92dbff97d79fc15774e78d366962582f658cfb8c7c7",
            "0x2e8a5e67535ded4bc451721efd2110f74c8836340d0fb7dc33a1b06cf4efca48",
            "0x0000000000000000000000000000000000000000000000000000000000000001"
          ],
          "data": "0x000000000000000000000000000000000000000000000000000000000000006000000000000000000000000000000000000000000000000000000000000000a0000000000000000000000000000000000000000000000000000000000000012000000000000000000000000000000000000000000000000000000000000000067765696768740000000000000000000000000000000000000000000000000000000000000000000000000000000000000000000000000000000000000000000100000000000000000000000000000000000000000000000000000000000000200000000000000000000000000000000000000000000000000000000000000006313030306b670000000000000000000000000000000000000000000000000000000000000000000000000000000000000000000000000000000000000000001a546f74616c20776569676874206f662074686973206261746368000000000000",
          "blockHash": "0xa5d60d3c976ee382a54217edc068f4938e25a4067a08576db98779b30f73b6d9",
          "blockNumber": "0x248d97c",
          "blockTimestamp": "0x69a51219",
          "transactionHash": "0xe5d84ec1e5893865efaadd4cdc0a1e032c6c5558827b82d2a06742eaf62050bb",
          "transactionIndex": "0x0",
          "logIndex": "0x4",
          "removed": false
        }
      ],
      "logsBloom": "0x00000000000000000000000000002000000010000000000000000020000000000000000000000000000000000000008000000000000000000000000000042010000000000000000000000000000000000000000000040000020000001000008000000000020000000000000000000800000000000000000000000000200000000000000000000000000000000000000000000000000000000002000000000000040002004000000000000000000000000000000000000000000000000000000000000000120000001000000000000000000000000008000000001000000060000000000000000000000000000010000000020000000040000000080000000040",
      "type": "0x2",
      "transactionHash": "0xe5d84ec1e5893865efaadd4cdc0a1e032c6c5558827b82d2a06742eaf62050bb",
      "transactionIndex": "0x0",
      "blockHash": "0xa5d60d3c976ee382a54217edc068f4938e25a4067a08576db98779b30f73b6d9",
      "blockNumber": "0x248d97c",
      "gasUsed": "0x20cdb",
      "effectiveGasPrice": "0x36ad8e",
      "blobGasPrice": "0x1",
      "from": "0xfde9344cabfa9504eead8a3e4e2096da1316bbaf",
      "to": "0x8ed92ff64dc6e833182a4743124fe3e48e2966a7",
      "contractAddress": null
    },
    {
      "status": "0x1",
      "cumulativeGasUsed": "0xf166",
      "logs": [
        {
          "address": "0x8ed92ff64dc6e833182a4743124fe3e48e2966a7",
          "topics": [
            "0xc3d58168c5ae7397731d063d5bbf3d657854427343f4c083240f7aacaa2d0f62",
            "0x000000000000000000000000fde9344cabfa9504eead8a3e4e2096da1316bbaf",
            "0x000000000000000000000000fde9344cabfa9504eead8a3e4e2096da1316bbaf",
            "0x00000000000000000000000016a1e17144f10091d6da0eca7f336ccc76462e03"
          ],
          "data": "0x741fe2105a2e3812e430f1779a9bf5e9d1c4dec896c8e0a15884ff90f2fac50a0000000000000000000000000000000000000000000000000000000000000003",
          "blockHash": "0x5612d1a9e6eb91b31e391f038fdbb5c77eeb2e5e3ec92904e58e74a930d96b88",
          "blockNumber": "0x248d97d",
          "blockTimestamp": "0x69a51219",
          "transactionHash": "0xc6d0d33c476c082eace20575f906a0fbc604b64d75d17a97168f2be4b3a49ad2",
          "transactionIndex": "0x0",
          "logIndex": "0x0",
          "removed": false
        }
      ],
      "logsBloom": "0x00000000000000000000000000002000000000000004000000000020000000000000000000020000000000000000008000000000000000000000000000002000000000000000000000000000000000000000000000000000000000000000008000000000000000000000000000000000000000000000000000000000000000000000000000000000000000000000000000000000000000000002000000000000040000000000000000000000000000000000000000000000000000000000000000000000000000000000000000000000000000000008000000000000000000008000000000000000000000000000000000000000000000000000080000000000",
      "type": "0x2",
      "transactionHash": "0xc6d0d33c476c082eace20575f906a0fbc604b64d75d17a97168f2be4b3a49ad2",
      "transactionIndex": "0x0",
      "blockHash": "0x5612d1a9e6eb91b31e391f038fdbb5c77eeb2e5e3ec92904e58e74a930d96b88",
      "blockNumber": "0x248d97d",
      "gasUsed": "0xf166",
      "effectiveGasPrice": "0x31c10c",
      "blobGasPrice": "0x1",
      "from": "0xfde9344cabfa9504eead8a3e4e2096da1316bbaf",
      "to": "0x8ed92ff64dc6e833182a4743124fe3e48e2966a7",
      "contractAddress": null
    },
    {
      "status": "0x1",
      "cumulativeGasUsed": "0xbd34",
      "logs": [
        {
          "address": "0x8ed92ff64dc6e833182a4743124fe3e48e2966a7",
          "topics": [
            "0xc3d58168c5ae7397731d063d5bbf3d657854427343f4c083240f7aacaa2d0f62",
            "0x00000000000000000000000016a1e17144f10091d6da0eca7f336ccc76462e03",
            "0x00000000000000000000000016a1e17144f10091d6da0eca7f336ccc76462e03",
            "0x0000000000000000000000000000000000000000000000000000000000000000"
          ],
          "data": "0x741fe2105a2e3812e430f1779a9bf5e9d1c4dec896c8e0a15884ff90f2fac50a0000000000000000000000000000000000000000000000000000000000000003",
          "blockHash": "0xbc7218f393dfb9024d2dd0d29e0524455c64caa0ca9d7f2b8d29f0195104de28",
          "blockNumber": "0x248d97e",
          "blockTimestamp": "0x69a51219",
          "transactionHash": "0x9acf0e177c4cf1a69f07126613df432a577bc2d62272db2129a20affa2d0c5ce",
          "transactionIndex": "0x0",
          "logIndex": "0x0",
          "removed": false
        },
        {
          "address": "0x8ed92ff64dc6e833182a4743124fe3e48e2966a7",
          "topics": [
            "0x93d2bba3f88d4a131b50e09e50cc1a5a3dc9f19a0aee9f00162570aa4e3110e2",
            "0x741fe2105a2e3812e430f1779a9bf5e9d1c4dec896c8e0a15884ff90f2fac50a",
            "0x000000000000000000000000fde9344cabfa9504eead8a3e4e2096da1316bbaf",
            "0x00000000000000000000000016a1e17144f10091d6da0eca7f336ccc76462e03"
          ],
          "data": "0x0000000000000000000000000000000000000000000000000000000000000003",
          "blockHash": "0xbc7218f393dfb9024d2dd0d29e0524455c64caa0ca9d7f2b8d29f0195104de28",
          "blockNumber": "0x248d97e",
          "blockTimestamp": "0x69a51219",
          "transactionHash": "0x9acf0e177c4cf1a69f07126613df432a577bc2d62272db2129a20affa2d0c5ce",
          "transactionIndex": "0x0",
          "logIndex": "0x1",
          "removed": false
        }
      ],
      "logsBloom": "0x00000000000000000000000000002000000010000004000000000020000000000000000000020000000000000000008000000000000000000000000000002010000000000000000000000000000000000000000000000000000000000000008000000000020000000000000000000800000000000000000000000000000000000000000000000000000000000000000000000000000000000002000000000000040000000000000000000000000000000000000000000000000000000000000000000000000000000000000000000100000000000008000000001000000020008000000000000000000000020000004000000000000000000000080000000000",
      "type": "0x2",
      "transactionHash": "0x9acf0e177c4cf1a69f07126613df432a577bc2d62272db2129a20affa2d0c5ce",
      "transactionIndex": "0x0",
      "blockHash": "0xbc7218f393dfb9024d2dd0d29e0524455c64caa0ca9d7f2b8d29f0195104de28",
      "blockNumber": "0x248d97e",
      "gasUsed": "0xbd34",
      "effectiveGasPrice": "0x2d7190",
      "blobGasPrice": "0x1",
      "from": "0x16a1e17144f10091d6da0eca7f336ccc76462e03",
      "to": "0x8ed92ff64dc6e833182a4743124fe3e48e2966a7",
      "contractAddress": null
    }
  ],
  "libraries": [],
  "pending": [],
  "returns": {},
  "timestamp": 1772427363888,
  "chain": 84532,
  "commit": "ee604c6"
}
